:040000006F10D04D60
:1000040000000000000000009000002068070020AD
:10001400A9BDF9F520080020000000000000000040
:1000240020080020900000200000000000000000D4
:10003400900000200000000090000020000000005C
:100044009000002090000020AE09002090000020C5
:1000540090000020081C00209000002000000000F8
:1000640090000020900000209000002090000020CC
:1000740086080020900000209000002090000020BE
:1000840090000020900000209000002090000020AC
:1000940001A04111814601468145114506C6EF0084
:1000A4003022B727004011472383E780B7F700E0E9
:1000B400938707D0984B6D9B98CB984B5D9B98CBBF
:1000C4007300501001000100B2404101828001110F
:1000D400814601468145114506CEEF00701EB727C3
:1000E400004011472383E780B717004083C6E70227
:1000F40003C5E7041307800893F6C60F136535009C
:1001040093E61600733607801376860832C0010022
:100114000100930570052380B704130680FA238039
:10012400C704010001002382070223800704024858
:100134007328088001000100733807801378880849
:1001440042C2010001002380B7042380C7040100D8
:1001540001002387D7022387A7042380070492463C
:10016400F3A6068001000100F336078093F68608A3
:1001740036C4010001002380B7042380C7040100B2
:10018400010083C6B70493E60602A385D70423803F
:100194000704A246F3A6068001000100B7F600E0BA
:1001A400938606D0884A1365450088CA884A5D99B3
:1001B40088CA730050100100010073370780137759
:1001C40087083AC6010001002380B7042380C704CE
:1001D4000100010003C7B7041377F70DA385E704F3
:1001E40023800704B247F3A7078001000100F2400F
:1001F400056182803971B7F5070022DC81462A84C3
:100204003010E105194506DE02D423160102EF0081
:10021400300BB717004083C6E70203C5E704130792
:10022400800893F6C60F1365350093E616007336FF
:1002340007801376860832C6010001009305700515
:100244002380B704130680FA2380C7040100010049
:1002540023820702238007043248732808800100A0
:100264000100733807801378880842C80100010030
:100274002380B7042380C704010001002387D70229
:100284002387A70423800704C246F3A6068001003F
:100294000100F336078093F6860836CA0100010090
:1002A4002380B7042380C7040100010083D607021A
:1002B40071757D15E98E2390D70223800704D246F9
:1002C400F3A606800100010037F500E0832605D17E
:1002D40093E646002328D5D083D607026575110519
:1002E40093F60660C18EC98EC206C182733507803B
:1002F400137585082ACC010001002380B7042380EC
:10030400C7040100010003C5F70013650504A387B2
:10031400A7002390D70223800704E246F3A60680B1
:10032400010001009166758C1DE87337078013770F
:1003340087083ACE010001002380B7042380C70454
:100344000100010003C7B70413670702A385E7048C
:1003540023800704F247F3A707800100010037F761
:1003640000E0832707D1DD9B2328F7D073005010CA
:100374000100010013078008F337078093F787080B
:100384003ED001000100B71700401305700523801B
:10039400A704930580FA2380B7040100010083D6E3
:1003A400070271767D16F18E2390D702238007040D
:1003B4008256F3A60680010001000DEC7337078016
:1003C400137787083AD2010001002380A704238011
:1003D400B7040100010003C7B7041377F70DA38521
:1003E400E704238007049257F3A707800100010064
:1003F4005145DD2EF250625421618280397152D40C
:1004040081462A8A01468145114522DC26DA06DE28
:100414004AD84ED63714004065258347E402034783
:10042400E4049304800893F7C70F1367370093E736
:100434001700F3B6048093F6860836C6010001005F
:100444009309700523003405130980FA2300240559
:10045400010001002302040223000404B246F3A6AF
:10046400068001000100F3B6048093F6860836C8BE
:1004740001000100230034052300240501000100CC
:100484002307F4022307E40423000404C247F3A768
:1004940007800100010013055002D128B7F700E0DE
:1004A400938707D0984B1367470098CB73B70480A2
:1004B400137787083ACA010001002300340523009A
:1004C4002405010001000347F40013670704A30790
:1004D400E40023000404524773270780010001004D
:1004E40073B70480137787083ACC01000100230016
:1004F400340523002405010001002167336AEA0062
:100504002310440323000404624773270780010077
:100514000100984B5D9B98CB7300501001000100C3
:100524008146014681451145612BF3B4048093F45F
:10053400840826CE0100010023003405230024058D
:10054400010001008347640493E717002303F404C4
:1005540023000404F247F3A7078001000100F250CE
:100564006254D2544259B259225A216182800111F3
:1005740013078008F337078093F787083EC201000A
:100584000100B7170040930570052380B7041306D4
:1005940080FA2380C7040100010083C6B70493F6E0
:1005A400F60DA385D704238007049246F3A606809C
:1005B4000100010093760502D5CEF336078093F649
:1005C400860836C4010001002380B7042380C704D1
:1005D40001000100B70614007D89558D88C701000C
:1005E40001000100010023800704A246F3A606804F
:1005F4000100010073370780137787083AC60100AA
:1006040001002380B7042380C70401000100010016
:1006140001003727004093061005A303D7802380E9
:100624000704B247F3A7078001000100930780087D
:10063400F3B7078093F787083ECE01000100B71790
:100644000040130770052380E704130780FA238012
:10065400E7040100010003C7B70413670708A38573
:10066400E70423800704F247F3A707800100010091
:100674000561828093760504BDC6F336078093F640
:10068400860836C8010001002380B7042380C7040C
:1006940001000100B7061400938606047D89558D78
:1006A40088C7010001000100010023800704C2463D
:1006B400F3A60680010001007337078013778708CB
:1006C4003ACA010001002380B7042380C704010053
:1006D40001003727004093062005A303D780238019
:1006E4000704D24781B773370780137787083ACC5A
:1006F400010001002380B7042380C7040100010026
:1007040098471367070C98C723800704E24719BF6B
:100714000111814601468145114506CE55269307B0
:100724008008F3B7078093F787083EC601000100ED
:10073400B7170040130770052380E704130780FAF6
:100744002380E7040100010003C76704136717004F
:100754002383E70423800704B247F3A7078001003B
:100764000100F240056182804111814601468145C4
:100774001145B92613078008F337078093F78708D4
:100784003EC401000100B717004013067005238022
:10079400C704930680FA2380D70401000100FD55A5
:1007A4002396B70223800704A245F3A50580010020
:1007B400010073370780137787083AC601000100E8
:1007C4002380C7042380D7040100010003C7670402
:1007D400136717002383E70423800704B247F3A7B2
:1007E40007800100010001A0BD473305F5020100A7
:1007F4007D1575FD8280411122C426C206C6AA84D5
:10080400014463179400B24022449244410182801F
:1008140005041305803E4204C13F4180DDB700005A
:100824009305000273A0458082457390153492406D
:100834002242B2424243D2436244F24402559255A8
:100844002256B2564257D2576258F2580649964930
:10085400264AB64A464BD64B664CF64C065D965D28
:10086400265EB65E465FD65F096173002030411193
:10087400B7170040985F3AC6945F3247E39CE6FEA0
:10088400324541018280B7170040130700032388D3
:10089400E702854723A0F18473002030411122C46C
:1008A40026C21384418406C6971000E0E780A0584E
:1008B40083470400054793848184850793F7F70FE2
:1008C4002300F4006398E700971000E0E780804D70
:1008D4002390A400834704001307800CB3F7E702B6
:1008E40039472300F400B7170040238CE70497101E
:1008F40000E0E780E05683970400B24022443E952E
:100904009307A0413305F502930700209244410167
:100914003345F502FD779387273B3E954205418198
:100924008280411106C69D3F9386618483C7060079
:100934000567130687BB93F7B7096368A600130618
:1009440007AF6379A60093E7C7032380F600B2409C
:10095400410182801307479C6375A70093E7E70171
:10096400EDB793E7A700D5B7411106C65D3FB24086
:1009740083C76184171700002305F736410182807D
:10098400411122C426C206C61384A1848544EF0003
:10099400E07E83470400E39C97FE014685450145BC
:1009A40023850184972000E0E7802068CDB73717BE
:1009B40000408357E7098566F58F81C78567231F44
:1009C400F708371700408357E7098966F58F81C711
:1009D4008967231FF708371700408357E709916693
:1009E400F58F81C79167231FF70837170040835796
:1009F400E709C207C18763D50700E177231FF7081A
:100A0400730020302303048015472303E48001008E
:100A14002302A480828083076480E3CE07FE23033D
:100A24000480828083076480E3CE07FE034544800C
:100A3400828083076480E3CE07FE2302A480828041
:100A4400411126C44AC24EC006C61377F50BAD4702
:100A5400AA892E8995446306F70019456537653FD1
:100A64008D444E854537FD59FD1463983401B240D9
:100A7400A244124982494101828013550901137528
:100A8400F50F453F2209CDB7011126CC06CEB70498
:100A9400080051371545BD37713769372AC6A53F58
:100AA40032459377150089EB136515001375F50F1F
:100AB400F240E24405618280FD14E9FC0145CDBFAA
:100AC400397126DC4ADA4ED852D656D45AD25ED080
:100AD40006DE62CE66CCB7E700E07D5783AA070046
:100AE40022C603AA470023A0E71823A2E718B717D2
:100AF4000040130770052380E704130780FA23805E
:100B0400E70483C74704930B75FFB684E20793FB9E
:100B1400FB0F8546AA892E8B328937240040E18752
:100B2400015763FA76016308D5008946130700026A
:100B34006313D5000157D98F93F7F70FB71C004003
:100B44002382FC0411472303E4801305F00F5D3D69
:100B5400094CD135636D7C11B7050700DA953787E9
:100B64000700795563F2E504B3879500636EF702D5
:100B7400370B0800A94733EB65016399F90689E44B
:100B84008144513D26850DA0DA850945553D050969
:100B94000345F9FFFD14050B693D81C49377FB0FF1
:100BA400FDF7DD3569FD7D55B71700401307700566
:100BB4002380E704130780FA2380E70403C747046C
:100BC400418B2382E704F250B7E700E023A05711DA
:100BD40023A24711E25432445259C259325AA25AFA
:100BE400125B825B724CE24C21618280A547639563
:100BF400F90685691309F00FB3069900B3742B0144
:100C0400B6941349F9FFB3749900856B337969017C
:100C1400416B9387F9FFB3F7270199E363FC340130
:100C240093D94900C147E3E637FF99BF0569C16914
:100C34007D19D9B71305800D638869011305000276
:100C44006384790113051008CA85DD3B353D21DD38
:100C54004E99B3843441D9B7DA852D45D533CA9436
:100C6400E30099F205097D3BA30FA9FED5BF938745
:100C7400F9FF93F7F70F6361FC0C83C71C04130798
:100C84003008631FF70437070800636BEB04B307EE
:100C94009B00B706100063F5D704334BEB0089477C
:100CA4006393F9068980D549E38C04ECDA85094518
:100CB400413B11090327C9FF91472320E48003071F
:100CC4006480E34E07FE23033481FD17EDFBFD141E
:100CD400110B81C49377FB0FE9FF7D3371F5E1B507
:100CE400B717004003C75704B70708001377070274
:100CF40019E3B78707007955E378FBEA33079B00CC
:100D0400E3FFE7F855B58547E382F9F2DA852D4527
:100D1400053B9389F4FFE38504E6293393F739000F
:100D240091EB832604800327090093074900E39A83
:100D3400E6E43E89CE84F1BFB5476396F900130516
:100D4400900BC93135BDB1471305B00AE38BF9FEE9
:100D540099476391F904B7050800B365BB002D45B5
:100D6400C53181448D4BA14975396396740183273C
:100D740004802320F9008504E39834FF832704804A
:100D840013172B01635507002312F900D5BB232247
:100D9400F900FDB39D476399F90281451305B00439
:100DA4004531BD442320090023220900FD599D3902
:100DB40093F77400CA9703C70700FD14398D238085
:100DC400A700E39634FF6DBBA1476392F9046D3924
:100DD4008144630D0B008D479304C0036308FB003B
:100DE4009304000563048B01930440041375C50741
:100DF400E30895D819453931393905452131268516
:100E04000D3909453D314931E31C05D669BB91478C
:100E14006399F90013056006F536F53E130590094C
:100E24000DB7E38F09D4F154A9BBB7C7004003A79A
:100E3400C72023A607200F10000001C599C18147D0
:100E440011E6B7C7004023A6E7208280B386F500E9
:100E540003C80600B306F500850723800601E317DF
:100E6400F6FEC5B737C700408327C72023260720CF
:100E74000F10000019C191C111E637C700402326A5
:100E8400F7208280910503A7C5FF11057D16232E47
:100E9400E5FEDDB737C700408327C7202326072098
:100EA4000F10000001C53307C50011E637C7004025
:100EB4002326F72082800505A30FB5FEE31DE5FE7A
:100EC400F5B7B7C7004083A6C72023A607200F1095
:100ED400000081473307F5000307070019E737C708
:100EE40000402326D7203E8582808507E5B701117F
:100EF40026CA4AC8B7C7004006CE22CC83A4C7205E
:100F04002A892E8623A607200F1000001315060138
:100F14009305F004418132C6EF0090222A8401C572
:100F24003246CA8519372285F2406244B7C7004069
:100F340023A697204249D24405618280B7C7004066
:100F440003A7C72023A607200F10000001C599C1DD
:100F5400814711EAB7C7004023A6E72005458280F0
:100F64008507E309F6FE3308F500B386F500034868
:100F7400080083C60600E305D8FEB7C7004023A6D1
:100F8400E72001458280B7C7004003A7C72023A6F6
:100F940007200F1000009307F6FFBE952A966317EB
:100FA400C500B7C7004023A6E7208280FD1583C78C
:100FB40015000505A30FF5FEDDB737C700408327ED
:100FC400C720232607200F10000001C53307C500E2
:100FD40019E637C700402326F7200145828005051E
:100FE4008346F5FFE397B6FEE31BE5FE37C70040F3
:100FF4002326F7200545828079719727000093877F
:10100400A77C22D4804306D626D24AD04ECE52CCD8
:1010140056CA5AC85EC679C0B7C4C901014B9729DC
:1010240000009389E9799384F437172A0000130A9E
:10103400EA79972A0000938A6A7417290000130931
:10104400697D8357240095E35C44631D0B001727D7
:101054000000232BF776832BC4002285EF00301D7C
:101064005E84B9A82326FB00FDB783A709008297F5
:101074001C443307F5406376F500032749001D8FB0
:101084002A9763E2E4089727000023A10770835599
:10109400240003450400972000E0E78020E25C4040
:1010A4005844A1CB0C4403264900AE97BE8663E4A2
:1010B400B70063E4C700B386C74014C4228B3A84E4
:1010C40049F0972700009387676B9C4B0547637231
:1010D400F706FD1717270000232AF76AB250225497
:1010E40092540259F249624AD24A424BB24B456188
:1010F400828063170B009727000023A7E76CA1BF2A
:101104002326EB0089BF03274A0209CF63EFA70018
:101114003385A74083A70A016376F500972700006B
:1011240023A6A766228B404461BF03274900BA97D0
:10113400C5B79727000023AB07644DB79727000076
:101144009387C76C9C4385C3411106C68297972732
:10115400000083C7C76689E79727000023A8076AAA
:10116400B240410182809727000083C7476591E719
:101174009727000023AC076882808280411122C433
:1011840017240000130444621C4006C626C24AC049
:1011940091C782979727000023A807605C4091C3FA
:1011A40082971C40639C071C173700000347778015
:1011B4009547972400009384647F6301F71C972765
:1011C400000083C7E7658DE383C75400858B89CF0F
:1011D40083C774001947631CF70E97270000A3897F
:1011E400077C99265C4482971C4491C382971729F3
:1011F40000001309295D0327090017260000034690
:10120400F6579727000083C7675793961700BA9637
:1012140083D60600E9CA9727000083C7275663EEE2
:10122400C70C97270000238B07541C4063980714AE
:1012340083C7740015476303F7149727000083C717
:10124400777791CF83C7740093F7F70F89EB9727CC
:101254000000A3810776970001E0E78060319727BB
:1012640000009387E7559C43638A07109727000083
:101274009387475ADC43172700002329F750AD3BD7
:101284009727000093878754DC53EDCB83C7740002
:1012940015476365F70E9727000083C7E775918BA1
:1012A400F1EF9727000083C78751E9EB0326090074
:1012B4009726000083C6964C63C8D70C2244B240DC
:1012C400924402494101172300E06700631583C774
:1012D40074001D47E31AF7F097270000A38A076CF0
:1012E400A1241C4809B7850793F7F70F9726000038
:1012F4002386F648E3E7C7F039BF86073E97835550
:10130400070023100700972700002399074A97270F
:101314000000938727499C43172500000345054691
:1013240013172500BA979C4382979727000083D709
:10133400E748172700000347674493C7F7FF7D8DED
:1013440093171700032709003E97835707005D8D05
:101354002310A7009727000083C7474291C785073A
:1013640017270000230CF740172700000347074105
:101374009727000083C79740E375F7EAB2402244F9
:101384009244024941018280139717003297035710
:1013940007006DF785070DB737C700408326C720C0
:1013A400B707FCFFFD17F58F2326F7200F10000069
:1013B400972700009387873CC84F832787262326D7
:1013C400D7206A0593C7F7FF99835D8D8280011149
:1013D400972700009387876D22CC03A4870B26CA26
:1013E40006CE2AC42EC6854419E40145F24062445F
:1013F400D244056182808347910003471400858BA2
:101404006304F7000044CDB719469305A100130502
:1014140024002D36E31895FE0545C9BF17270000A3
:10142400130707581443411122C49C5E4AC006C6E0
:10143400998326C2858B3A8417290000130909561B
:10144400D1CB930700069CDE17270000034767569D
:10145400930700089724000093844455631BF70006
:10146400832709009C4393F70704172700002302EE
:10147400F75483C7040093F707049DC3972700001C
:10148400938707349C4382979727000023A8A75289
:1014940083C7040093F7F70B172700002308F750BE
:1014A40083C7440093F7070495E78547172700008F
:1014B400A300F75097270000938707519C433707F1
:1014C400020098C7130700FC972600002382E64E0B
:1014D400D844F8D318401C5F9183858B8DC31C5F5F
:1014E40093E707011CDF972700009387E74D9C4390
:1014F40023A20706854717270000230BF74A8327F3
:101504000900D8430583058B19C7D843759BD8C3F5
:10151400D843799BD8C3B240224492440249410142
:101524008280ED3D73002030972700009387C749E0
:101534009443972700009387674703C70700058BE9
:1015440011CB972700002385074697270000A38126
:101554000746828003C71700058B65F7F85271FFB1
:1015640083C75700DDB71727000013076743032815
:101574000700832788039583858BADEF11C68327E6
:101584000803BD832300F6009DC61C43985B4607F1
:10159400935767016356070093E707C0C207C183E7
:1015A40003970600C207C18709C7BA970947B3C79B
:1015B400E7022390F6008DCD8345150095C9972742
:1015C400000083C7073F93F70704138795008945F5
:1015D40085C33A95834705000547994593F6F70671
:1015E4006398E600E207E187814563D30700B945C4
:1015F4002E8582808545EDBF411122C406C617247D
:1016040000001304643C184049E9AE877453FDFE9E
:101614003E85B28597270000238B0738970001E0A9
:10162400E780E0DB97270000938787379C43B70662
:1016340080009843558F98C3D857719BD8D7972764
:101644000000A387073697270000A38107361C40B4
:10165400094798C3B7F700E003A707D16D9B23A8F8
:10166400E7D003A707D15D9B23A8E7D073005010F0
:101674001440172700001307673383472700858B1F
:1016840089EB83473700858BC1C3972700002381EB
:101694000732B2402244410182808D476310F50233
:1016A400972700009387C72F9C43B7068000984371
:1016B400558F98C3D857719BD8D75DBF8547E31919
:1016C400F5FA54478177FD17F58F5CC70F100000BA
:1016D4001840B70702001CC7930700F8172600003C
:1016E4002308F62C972700009387872B9C439C4361
:1016F4009D83858B6397A700930760197CD354C798
:1017040085BF9307E01BDDBFFC52A5FB59B7411110
:1017140022C4172400001304242B1C4006C6D847F7
:101724009316D70063D6060298479316D70063D161
:1017340006027D57B8D71727000013072704584F10
:1017440005079726000023A9E6043707040098C775
:1017540098470D83058B1DC31727000003472725D2
:1017640013671700972600002383E624130700F865
:1017740097260000238EE622214798C79847058BB9
:1017840009CF17270000034777221367170097260E
:101794000000A38DE620054798C798470983058B69
:1017A40009E798470583058B31C317270000A30178
:1017B40007209847972600009386461F0983058BC8
:1017C4006302071003C7060013671700972600007B
:1017D400238EE61C114798C7172700001307471CE0
:1017E4001443D856719B13671700D8D6984793169D
:1017F400F70063D606029726000083C66632C18AC4
:10180400172700001307872AE1CA0347470713670E
:101814000702972600002385E630416798C798475A
:101824009316E70063D20602172700000347471800
:1018340062076187635707000547972600002389DD
:10184400E6163707020098C798479316C70063D770
:1018540006029726000083C6B62C858A1727000047
:101864001307C724C1CA03475707136727009726DE
:101874000000A387E62A3707080098C798479316FD
:10188400B70063DD06023707100098C797270000EA
:1018940083C707F985C717270000034797119547A2
:1018A400630EF700972700009387C70E9C4391C3EC
:1018B40082971840B7071F00BD075CC7B240224497
:1018C4004101828003C73600136717009726000082
:1018D400A38FE60C094701B7834647070946BD8A2B
:1018E4006388C600034747078D463D8BE317D7F24D
:1018F400114705B783465707918AB5DE0347570753
:1019040013678700ADB7972700009387E70B9843C9
:101914008967938707F47CD3972700009387071080
:101924009C4383A60709139656006358060083A6B2
:10193400070913966600634406007453FDF282801F
:10194400411122C4B7C7004006C603A4C72023A67A
:1019540007200F10000011C199E5B7C7004023A666
:10196400872001457DA893073500C207C183F19BF9
:10197400C207C183130740036369F70217270000F6
:10198400130787120843172700001307671114432E
:101994006392A60217270000130747E3185B55DF7D
:1019A400C207DD8D054502974DBF172700001307B9
:1019B400670FC9BF035765002DEB035745006366E6
:1019C400F706B306F7402146637CD60203280500D8
:1019D400938687001D8FAA96611717260000035669
:1019E40046DA2392E60023A006012393060014C1DD
:1019F4002312F500130786FF972600002393E6D8E9
:101A04002313B5009725000083D5A5D7B387F540E8
:101A1400172700002317F7D6B7C7004023A687204F
:101A24002105B240224441018280084195B7B7C7DD
:101A3400004003A8C72023A607200F10000001E5DB
:101A440023A607218280972700009387E70503AE2A
:101A54000700972700009387A70403A30700814684
:101A6400F28763F0670C83A80700636FF50A63EDE0
:101A7400A80A138787006366E50A03D6670021670F
:101A840005076317E60003C7018C05072380E18C73
:101A940097250000938585CE03D6470003D76500BC
:101AA4002393070032974207418317250000231A26
:101AB400E5CC638AC703172500001305A5FE08417A
:101AC4006303F50203D5660019ED83D7460023A00E
:101AD400160121073E9621062392C600972700008F
:101AE4002391E7CAB6879843630D670297260000DF
:101AF400938646FB94426306D7028356670095E2B9
:101B040083D64700035647001843A106B296239292
:101B1400D70098C383D76500A107172700002312B5
:101B2400F7C6B7C7004029BFBE86C6871DBF0111CF
:101B340097270000938787F722CC03A4070C26CAB3
:101B44004AC84EC606CEAA8413092500854915C085
:101B540083C7140003473400858B6304F700405C9B
:101B6400FDB71946930544004A85EFF02FBDE318ED
:101B740035FF2285F2406244D2444249B2490561AC
:101B84008280411197270000938747F222C403A45F
:101B9400070C26C24AC006C693042500054901E87D
:101BA4002285B24022449244024941018280A685A2
:101BB4001305A40297B001E0E780C09BE30225FF70
:101BC400405CF1BF411197270000938727EE22C4A0
:101BD40003A4070C26C24AC006C69304250005497F
:101BE40001E82285B24022449244024941018280A4
:101BF400A6851305A40197B001E0E780A097E3024E
:101C040025FF405CF1BF0000197106C212C416C65C
:101C14001AC81ECA22CC26CE2AD02ED232D436D608
:101C24003AD83EDA42DC46DECAC0CEC2D2C4D6C6F8
:101C3400DAC8DECAE2CCE6CEEAD0EED2F2D4F6D6E8
:101C4400FAD8FEDA938581838841E7000500924043
:101C54002242B2424243D2436244F2440255925574
:101C64002256B2564257D2576258F25806499649FC
:101C7400264AB64A464BD64B664CF64C065D965DF4
:101C8400265EB65E465FD65F0961730020300000B1
:101C9400EFF0CFCA7300000000000000972200009C
:101CA4009382E2B10383020023800200630F0300E6
:101CB400F32510342EC0970500009385A5FD73907D
:101CC4001534EFF0DFA47300203086DCEFF03FA47E
:081CD400E650828000000000D0
:101CDC00971100209381C192175100201301C1B1BB
:101CEC001305400097E5FF1F93850531170600206B
:101CFC00130606FE63FAC5008322050023A05500D7
:101D0C0011059105E3EAC5FE17B501001305C57170
:101D1C00970500209385C5FB1386818363FAC50064
:101D2C008322050023A0550011059105E3EAC5FEA9
:101D3C001385818397250020938505E96377B5008A
:101D4C00232005001105E36DB5FEFD42739002BC26
:101D5C008D4273904280930280087390023097E218
:101D6C00FF1F9382622993E23200739052309712D4
:101D7C000000938202C173901234730020302A83C6
:101D8C0009CA83830500230073007D1605038505AE
:101D9C006DFA8280B717004083C5870503C8970585
:101DAC0003C7970593F5F50F1378F80F13678700A2
:101DBC00A38CE70403C797051377B70FA38CE7042D
:101DCC0003C7A70513671700238DE70437170040D7
:101DDC008347A705858BEDFF0565C1463717004086
:101DEC009308F5FF0346A70513661600230DC704D9
:101DFC000346A705058A6DFE0356C705FD16C206E8
:101E0C001346F6FF33761601C182B297E1FEA107A5
:101E1C009183130505801D8DA30C07054205230C2A
:101E2C00B70441858280B717004003C77705137745
:101E3C00E70FA38BE7043947238CE7040D47A38CEA
:101E4C00E70403C7A7051377D70F238DE704828018
:101E5C00371700408347A70593E71700230DF704B6
:101E6C008347A705858BEDFF0355C70552055181A7
:101E7C008280B717004003C7E7040D89411113771F
:101E8C00C70F498F93068008F3B6068093F6860831
:101E9C0036C601000100930670052380D704930613
:101EAC0080FA2380D704010001002387E7042380F4
:101EBC000704B247F3A707800100010041018280AB
:101ECC0041112A830148930E407E130F0019930F82
:101EDC0040069318030193D8080163EF1E01130306
:101EEC000019337365028542FD4363F0B20A8D4FCE
:101EFC00214F930E400689A87D13336EE30393089C
:101F0C00E016630E0E00336EF3039308D0166308CD
:101F1C000E009378330093B818009388D816C298A3
:101F2C0013980801135808016DB793F81500138E18
:101F3C00F5FF6371BF04F908C29813980801931553
:101F4C000E0113580801C181E391F5FF8545630B20
:101F5C000300B378D503814563860800937535007B
:101F6C0093B51500F105C295139805011358080196
:101F7C008945D9BFB3881341C298139808019315AA
:101F8C000E0113580801C1818DB77D163298794620
:101F9C003307C70213D61700BE07420813580801AF
:101FAC0032976146B3F6C60213068070B386C6023A
:101FBC003697A166F58F4207D98FB716004003C735
:101FCC00F60213770708A303E1000346710003C769
:101FDC00F60213770708E314E6FE03477100B71601
:101FEC0000405DCF1307800873370780137787088D
:101FFC003AC4010001003717004093067005230016
:10200C00D704930680FA2300D70401000100232A89
:10201C0007038346170393E60608A308D702230099
:10202C000704224773270780010001001166371748
:10203C0000407D16545B4C5FAD8EF18EE5FE930631
:10204C008008F3B6068093F6860836C601000100B8
:10205C00930670052300D704930680FA2300D70457
:10206C00010001005CDB8347170393E70704A30817
:10207C00F70223000704B247F3A707800100010011
:10208C004101828003C7F60213770708A303E1001E
:10209C000346710003C7F60213770708E314E6FE44
:1020AC000347710065D33DBF4111B7170040985FDE
:1020BC003AC6945F3247E39CE6FE3245410182808A
:1020CC00914763EAB70897B70100938727D28A052F
:1020DC00BE9598413E97B71700409387470B0287F0
:1020EC0094431345F5FF37170040E98E94C39306CC
:1020FC00070B9C42E98F9CC29307070A9843798D82
:10210C0088C3828090439346F5FF37170040758E45
:10211C0090C31306070B1C42C98F1CC29307070AF6
:10212C009843F98E94C38280944337170040C98E2C
:10213C0094C39306070B9C421345F5FF65BF94436C
:10214C001347F5FF758F98C3B71700409387070A9D
:10215C009843498F98C382809843498FEDB7914734
:10216C0063EAB70897B70100938787C98A05BE95BC
:10217C0098413E97B71700409387470D02879443C9
:10218C001345F5FF37170040E98E94C39306070DEE
:10219C009C42E98F9CC29307070C9843798D88C3A6
:1021AC00828090439346F5FF37170040758E90C39D
:1021BC001306070D1C42C98F1CC29307070C9843CA
:1021CC00F98E94C38280944337170040C98E94C310
:1021DC009306070D9C421345F5FF65BF94431347C7
:1021EC00F5FF758F98C3B71700409387070C98437A
:1021FC00498F98C382809843498FEDB79357E50078
:10220C0093F70730C98FC2070947C183638BE50475
:10221C006362B70213C6F7FF9DE937170040835678
:10222C006709F18E231BD7081307C70C1443C98EFB
:10223C0014C321A00D47638CE50237170040231F00
:10224C00F70883562709D58F2319F708828037178B
:10225C00004083566709F18E231BD7081307870CA0
:10226C00F1B73717004083566709DD8E65BF371706
:10227C00004083566709DD8EC5B7797122D43714B7
:10228C00004026D24AD0035924028354040206D6B5
:10229C004209C2044ECE52CC56CA13590901C18010
:1022AC002DE11379F9F793F4F49F4209C204135901
:1022BC000901C18093078008F3B7078093F787085B
:1022CC003EC401000100930770052300F40493073A
:1022DC0080FA2300F40401000100231124032310CD
:1022EC00940223000404A247F3A707800100010015
:1022FC00B250225492540259F249624AD24A456170
:10230C008280B7F5070081463000B105194597E08A
:10231C00FF1FE780607A22478967F98FF1FB136909
:10232C00090893E4044093098008F3B7098093F7F4
:10233C0087083EC001000100930A70052300540574
:10234C00130A80FA23004405010001002311240321
:10235C0023109402230004048247F3A70780010092
:10236C000100294597E0FF1FE7808047F3B90980FA
:10237C0093F989084EC20100010023005405230083
:10238C004405010001008357040293E70720231042
:10239C00F40223000404924781BF411131E59307F5
:1023AC008008F3B7078093F787083EC0010001004F
:1023BC00B7170040130770052380E704130780FA52
:1023CC002380E7040100010003C7E70093C5F5FF74
:1023DC006D8F2387E700238007048247F3A70780CC
:1023EC00010001004101828013078008F337078048
:1023FC0093F787083EC201000100B717004013088D
:10240C00700523800705130580FA2380A7040100BB
:10241C00010083C6E700CD8E93E606042387D70020
:10242C00238007049246F3A6068001000100F336D0
:10243C00078093F6860836C4010001002380070547
:10244C002380A7040100010083C6F70093F6C60F92
:10245C00A387D70023800704A246F3A606800100B9
:10246C00010073370780137787083AC60100010013
:10247C00238007052380A7040100010003C7F70090
:10248C007D163336C000518FA387E70023800704E5
:10249C00B247A9B737E700E01C435443A183E206D7
:1024AC00D58F1CC1FD572320F7182322F7188280E3
:1024BC0013178500B7E700E023A0E710618123A282
:1024CC00A7108280B7F700E08847CC478280411183
:1024DC009397050122C406C626C2C1872E8463DCED
:1024EC000700ED2B11C181232165218DB2402244BF
:1024FC0092444101828093F7150013C51500FDF736
:10250C00916433F595007DD113060064916503C584
:10251C00C183EF009030258C131504014181F9B76C
:10252C001D71494697B501009385C58E17B50100FD
:10253C00130545AD86CEA2CC97F0FF1FE780809F98
:10254C0011E101A037F700E0795610CBFD5654CBC2
:10255C00B7E700E0056423A087109306F00214C3CC
:10256C0023A087180100010017F7FF1F13078772BC
:10257C0023ACE1824157A38AE7401306C00381458F
:10258C00480897F0FF1FE78060909707002093871B
:10259C0027993ECA896793870780231CF100ED4772
:1025AC002312F1029547A301F10285472303F1029F
:1025BC00930754D12314F102B7F5070097070000D5
:1025CC00938787F03EDA814697070000938727169A
:1025DC007000E10519453EDC97E0FF1FE780C04D18
:1025EC00B2473ED6835701012318F102D24789C75F
:1025FC008357810163F3870001A04808EF10C00FD7
:10260C0011C101A0F6406644256182804111170575
:10261C000000130505EC06C6EF10400A238EA182BC
:10262C00B120B240410161A2411193078008F3B778
:10263C00078093F787083EC601000100B7170040DA
:10264C00130770052380E704130780FA2380E7043F
:10265C0001000100C8DB23800704B247F3A7078001
:10266C000100010023A0018441018280797106D60A
:10267C0013078008F337078093F787083EC40100DF
:10268C000100B7170040930570052380B7041306AB
:10269C0080FA2380C7040100010083C6F70293F679
:1026AC00D60FA387D70223800704A246F3A6068081
:1026BC000100010073370780137787083AC60100C1
:1026CC0001002380B7042380C7040100010003C765
:1026DC00F70213675700A387E70223800704B2476A
:1026EC00F3A7078001000100814701478146054699
:1026FC0085451305407EEFF0AFFC08084146814547
:10270C0097E0FF1FE7808078B707C0A83ECAB7875D
:10271C0032003ECC080897E7FF1F9387C7143EC8CA
:10272C00EF10202BB25045618280011122CC06CED5
:10273C00930740031304C5FC63E7A7003704C0A844
:10274C001304C4FC2A946800B133B93AB307A4400B
:10275C006376A400B707C0A8A297898F3747F6A65F
:10276C009387F7FD1307F7C5637AF70032450944E1
:10277C008133F240228562440561828022856D3569
:10278C0032453D3303A401840DE01165690597E0E2
:10279C00FF1FE780A0A50545EFF0AFED31322AC44D
:1027AC002132A247E30EF5FEE9B70D44D9B741112A
:1027BC0013078008F337078093F787083EC401009E
:1027CC000100B7170040930570052380B70413066A
:1027DC0080FA2380C7040100010083C6E70093E65A
:1027EC0086002387D70023800704A246F3A6068021
:1027FC000100010073370780137787083AC6010080
:10280C0001002380B7042380C7040100010003C723
:10281C00170313670702A388E70223800704B24754
:10282C00F3A7078001000100B7E700E037070010AD
:10283C0023A0E7104101828082804111939705010A
:10284C0022C406C6C1872E8463DD070003C55184EC
:10285C00712411C1C92A2165218DB2402244410144
:10286C00828093F7150091CB17F5FF1F130545597F
:10287C00EF30011413451400CDB713F5250071DDAD
:10288C00096613060690894503C55184EF00E0786C
:10289C0097E0FF1FE780C00C97F6FF1F9386464317
:1028AC001306600285450145EF40300A13452400AC
:1028BC006DB7011117050000130565F806CE22CC83
:1028CC0026CAEF00B05F1384518485472300A4000F
:1028DC00A306F1001306F1008D4785451305C030A2
:1028EC002307F100A3070100EF40F1591306D100B3
:1028FC00854513055030EF4011591306E10085450D
:10290C0013058030EF40315817F6FF1F1306463C75
:10291C009305600213056030EF40F1568564938592
:10292C0004C80D45EF209025938504C81145EF2070
:10293C00F024594697F5FF1F9385653C17F5FF1F4B
:10294C0013057539EFF0AFC397F7FF1F8387C73AAD
:10295C00998717F7FF1FA30BF73897E0FF1FE78046
:10296C00200003450400854591230345040062447F
:10297C00F240138604C8D2448945056179AD4111F2
:10298C00054506C6DD381305800497E0FF1FE78078
:10299C0080BD85457D55EFF0AFF285457D55EFF057
:1029AC000FFC85450565EFF08FFB89450565EFF05C
:1029BC00FF8485450965EFF08FFA89450965EFF0CD
:1029CC00FF8385451165EFF08FF989451165EFF0AF
:1029DC00FF8285452165EFF08FF889452165EFF081
:1029EC00FF81B7E700E03707040023A0E71041465A
:1029FC00C14505455D322D361139EF40B17A553D53
:102A0C0097E0FF1FE78040F723AC05FE1C4191E7E0
:102A1C00010001000CC18280BA8703A787FF6DFFFC
:102A2C0023ACB7FE8280411122C426C237C40040B9
:102A3C0006C68324C420232604200F10000009E9B5
:102A4C00232694201545B2402244924441018280B1
:102A5C000347E5FF9307F00F6306F7002326942046
:102A6C001145D5B797F0FF1FE780E0FB0145232602
:102A7C009420D1BF411126C24AC0B7C4004006C63B
:102A8C0022C403A9C42023A604200F10000009E9C6
:102A9C0023A62421B240224492440249410182805F
:102AAC009565938505D0C98D2A842105C2054205FB
:102ABC00C181418197F0FF1FE78000E801CDFD57F0
:102ACC0023200500231285002303F50023A62421CF
:102ADC002105C9B723A6242101456DBF411126C28A
:102AEC00B7C7004006C622C483A4C72023A607206C
:102AFC000F10000097170020938747C7904301449D
:102B0C000147B28791E711E8A165EF00007A35A083
:102B1C0083C6E7FF639DA60221C0832684FF631F43
:102B2C00C402171700202323D7C47D57232C04FE7F
:102B3C00230FE4FEF1DBA165952E2285B2402244E1
:102B4C00B7C7004023A6972092444101828011E030
:102B5C003E8783A787FF7DB73E84E5BF232CD7FE36
:102B6C00E9B7411126C24AC0B7C4004006C622C408
:102B7C0003A9C42023A604200F10000089E523A676
:102B8C002421154515A02A849717002083C757BE0A
:102B9C002E856375F400894763EE87006935B7C7E6
:102BAC00004023A627210D45B240224492440249FD
:102BBC004101828083A785FF99E703C7E5FF93074F
:102BCC00F00F6308F7008535B7C7004023A627210F
:102BDC004DBF238F85FE17150020130525B92D3504
:102BEC00A1652285E124014523A6242175BF9717F1
:102BFC00002023AD07B6828097170020938707BC6F
:102C0C009C4399E33E85828003D727006316B70067
:102C1C0003C70700E308A7FEDC47E5B7C9C1797114
:102C2C0022D406D626D24AD04ECE01444147B3D741
:102C3C008540858BA5C31205314722953305E502E6
:102C4C0097170020938787BB03A907008544B3948B
:102C5C008400C204C180BE892A990327090011C7C8
:102C6C00032549002EC60297B24531473304E402CE
:102C7C0083A709003E941C4489E7232009002322E2
:102C8C000900B2502254A58D02599254F2492E8556
:102C9C00456182800504E31CE4F88144DDB72E8590
:102CAC00828041111397050122C406C626C24AC070
:102CBC0041872E84635E0700153511C1AD33A167C2
:102CCC003D8C2285B24022449244024941018280CB
:102CDC00EDD9AA8701474146B356E440858A8DCE8B
:102CEC009207BA97B146B387D702971600209386FE
:102CFC00E6B003A906008544B394E400C204C18085
:102D0C003E99832709000325490082972320090057
:102D1C0023220900258C75B70507E31FC7FA8144E8
:102D2C00D5BF411126C2B7C7004006C622C483A432
:102D3C00C72023A607200F100000971700209387A9
:102D4C0027A89C531384818099C782971C403E9579
:102D5C0023A4A18039A0971700209387A7A59C4393
:102D6C00EDF71C40374703001307D73FB387E70243
:102D7C0037A72600130737ECB240BA9723A4F1808B
:102D8C00B7C7004023A69720084022449244410133
:102D9C008280797126D2B7C7004006D622D44AD099
:102DAC004ECE52CC56CA5AC85EC662C483A4C72043
:102DBC0023A607200F10000005E123A69720094544
:102DCC00B250225492540259F249624AD24A424BAE
:102DDC00B24B224C45618280971700209387879DC8
:102DEC009C43BA8A368AB28B2E8BAA898297971704
:102DFC0000209387A7A098433E890144B146C14760
:102E0C00330CD40233068701104241EAC165938525
:102E1C0005F0414597F0FF1FE78000B205E19717D9
:102E2C0000209387E7999C5B81C781451145829768
:102E3C00B7C7004023A697202D4559B797170020F8
:102E4C009387C797984331E79717002023A8A79635
:102E5C002300050083270900054733178700232625
:102E6C000500232475012311E50023225501E29767
:102E7C0023A0370123A2670123A4570163040A008E
:102E8C0023008A00B7C7004023A6972001450DBF39
:102E9C003E875C47F5FF48C765BF0504E312F4F6AF
:102EAC00B7C7004023A69720214519BFB7C70040DC
:102EBC0083A6C72023A607200F1000001717002099
:102ECC000347178B6373E502171600201306C68E93
:102EDC001317150008423A9503570500D98D231096
:102EEC00B50023A6D7200145828023A6D7200D4507
:102EFC008280B7C7004083A6C72023A607200F10E7
:102F0C000000171700200347B7866375E5021716F4
:102F1C0000201306668A13171500084293C5F5FFA7
:102F2C003A9503570500F98D2310B50023A6D72039
:102F3C000145828023A6D7200D458280011126CA27
:102F4C0037C7004006CE22CC4AC84EC652C4832492
:102F5C00C720232607200F100000130705FF137747
:102F6C00F70FFD4763E5E70AB146B306D50297179D
:102F7C0000209387A788984336971C43C9CB135AD4
:102F8C00450005443D893315A40013140501418007
:102F9C002E895285A2858D31AA8929CDA28552858B
:102FAC00893F971700209387E7809C438297971758
:102FBC00002083D7E785338727032A8481461306AD
:102FCC000064B3B7270313050732B335E500BE958C
:102FDC00EF907126B3078500971600209386C68262
:102FEC003E87D44263E4A70063E4D7003387D7401D
:102FFC0023A4E900B7C7004023A697200145F2405F
:10300C006244D2444249B249224A05618280B7C720
:10301C00004023A697200945DDB7797126D24ECE04
:10302C00B7C4004006D622D44AD052CC56CA5AC88D
:10303C005EC683A9C42023A604200F1000009707A6
:10304C00002083C7F772637AF500970700209387F7
:10305C00677683AB070063970B00B7C7004023A6C6
:10306C003721A9A0170B0020130B0B7A832A4B00D6
:10307C00B74736FE938707C82E8A9705002083D55D
:10308C002579BE9AB387C5022A8432898146B3B5A5
:10309C00C50213850732B337F50013060064BE95DD
:1030AC00EF90711963F0AA0223A634210145B250A6
:1030BC00225492540259F249624AD24A424BB24BC0
:1030CC0045618280829B9705002083D56574B38708
:1030DC002503AA84130600648146B3B52503138522
:1030EC000732B337F500BE95EF90F114B307950096
:1030FC00BE8403274B0063E4A70063E4E700B384BA
:10310C00E740D2852285CD3C01C904C5B7C7004034
:10311C0023A63721054561BF936504F0C205C18123
:10312C00414597F0FF1FE780208119E997070020A0
:10313C00938707699C5B95D3A2851145829731BF14
:10314C0097070020938787679C439DE39707002090
:10315C0023A6A76685472326050004C52311450130
:10316C0023008500A300F5002322050045B7BA878C
:10317C00D84775FFC8C7F9BF79714ECEB7C70040A5
:10318C0006D622D426D24AD052CC56CA5AC85EC6CB
:10319C0062C466C26AC083A9C72023A607200F1089
:1031AC00000035C141443689B28A2E8AAA84B14CBA
:1031BC00170B0020130B8B64054D130C0003B30B82
:1031CC00940303270B005E971C43B9EF9375F4002F
:1031DC00B315BD0013554440C2055686C181137505
:1031EC00F50F253D31C183270B00DE9784C323A245
:1031FC0047016304090023008900B7C7004023A6D8
:10320C003721014521A023A637210945B25022546C
:10321C0092540259F249624AD24A424BB24B224C66
:10322C00924C024D456182800504E31A84F9B7C7BC
:10323C00004023A637212145D1BF011122CC26CA3B
:10324C004AC84EC6B7C7004006CE03A9C7202A8479
:10325C00AE89B28423A607200F1000007D3B228587
:10326C00CE85593A2A8405C59705002083D5455A41
:10327C00B3879502130600648146B3B59502138596
:10328C000732B337F500BE95EF90E17A48C013359D
:10329C001400F2406244B7C7004023A62721D24451
:1032AC004249B2490E0505618280011122CC4AC8FF
:1032BC004EC6B7C7004006CE26CA83A9C7202A89A6
:1032CC002E8423A607200F100000EFF0FF92AA8493
:1032DC0019C123110500A2854A85213997070020C1
:1032EC0083C70749639B27019707002083D7474C67
:1032FC005D8C97070020239D874AB7C7004023A603
:10330C003721014591E01945F2406244D2444249CB
:10331C00B24905618280011126CA4AC8B7C400406F
:10332C0006CE22CC4EC603A9C42023A604200F101F
:10333C0000009307F00263E8A704B1473304F502D9
:10334C00970900209389894B83A70900A2979C4376
:10335C009DCB9377F5008545B395F500C205C181EA
:10336C001181A13783A709000145A29723A007006B
:10337C0023A2070023A62421F2406244D2444249EE
:10338C00B24905618280B7C7004023A627210945B1
:10339C00E5B7411126C206C622C4B7C7004083A4B4
:1033AC00C72023A607200F100000EFF0FF8419E9B7
:1033BC000145B2402244B7C7004023A6972092444F
:1033CC0041018280970700209387C73E9C430045AC
:1033DC00829797070020938727436368A402D843FA
:1033EC00B74636FE938606C83305A4403697E3717C
:1033FC00E5FC13070064B335E50203D6870081466C
:10340C003305E502EF9021636DB7D8433A94C1BF01
:10341C000111680006CE22CC26CAEFC05008FD5719
:10342C00630BF50AB247DDC3970700209387C73DAE
:10343C00970400209384C4339448D8433E84638714
:10344C00E602970700209387E7369C438297B247A2
:10345C00984863F3E7003E87B307A7003E855440C6
:10346C0063E4E70063E4D7003385D74017040020FA
:10347C00130404531C4C81CF9707002093874759A2
:10348C0094433707CDFF7D179C46F98F9CC611E5F9
:10349C009707002093874737C843970700209387E7
:1034AC002732DC53829719E51C4C8DC3EFE0B00436
:1034BC00EFD0D0591C4C99CB9707002093874755D8
:1034CC009843B70633001C47D58F1CC7F2406244A3
:1034DC00D2440561828097040020938464291704E8
:1034EC0000201304643294485840970700209387B7
:1034FC00672C9C436393E60282975440B74736FE91
:10350C00938707C8B6973387A7003A856364F7009B
:10351C00E36ED7F43305D74091BF82979448584057
:10352C00B387A6003E8563E4D700E3E1E7F4338577
:10353C00E7402DBF411106C69707002023A4A72CF6
:10354C000295B2409707002023A0A7240145410112
:10355C008280914763E9B7008A059707002093871B
:10356C00E723BE9588C182809707002023AAA7284D
:10357C0011C5854717070020230DF72282804111C2
:10358C0051468145170500201305452106C69707AE
:10359C00002023A507229707002023A507269707BD
:1035AC00002023A9072097070020238407209707D2
:1035BC00002023A7072497E0FF1FE780208D130628
:1035CC0080028145170500201305851A97E0FF1F1F
:1035DC00E780C08BEF40C1469707002083C7971F39
:1035EC0013D527008D8B3E958D473305F502854508
:1035FC0039051375F50F97070020238CA7169947EB
:10360C003305F5021305052497E0FF1FE780C03250
:10361C00170700202324A71E59CD99471706002011
:10362C00034626153306F60281451306062497E059
:10363C00FF1FE780A085970700209387271C9C43DA
:10364C0093870724170700202328F7141707002057
:10365C00034727120A07BA9717070020232EF714DF
:10366C00EFF0EFD8A929970700209387E71294432E
:10367C009707002083C7D70F13972700369717F6A5
:10368C00FFFF1306E65910C3138717001377F70FC4
:10369C000A07369717F6FFFF1306E66010C3138769
:1036AC003700890793F7F70F8A0797050020A38146
:1036BC00E50CB69790C3B240410182809707002079
:1036CC0083C7170B170700200347A70A63F3E7020A
:1036DC00170700201307470C18439386170017068B
:1036EC000020A307D60893962700369708C33E857B
:1036FC0082809307F00FE5BF1C416382071441776A
:10370C007D8FB70600208947631CD71203574500ED
:10371C0063080712411122C419462A849305F00F3D
:10372C00610506C697E0FF1FE780A08805478D4717
:10373C006302E5101C4491C75858994765CF185C33
:10374C0075CB1306C00381451705002013054507EB
:10375C0097D0FF1FE78080731306C003A28517055F
:10376C0000201305E50597D0FF1FE780806B170736
:10377C0000200357A705970700209387670419E7D4
:10378C0013070010970600202392E6041707002069
:10379C000347E70311E70547970600202389E60254
:1037AC00170700200357C70211E76D479706002043
:1037BC002390E602170700200347770111E715470E
:1037CC0097060020A385E600170700200347670033
:1037DC0011E7054797060020238DE6FE170700200A
:1037EC00034737FF19E703C7F70097060020A382AA
:1037FC00E6FE170700200347E7FD11E7554797063C
:10380C0000202389E6FC0347640119E71307C00372
:10381C00970600202381E6FC9C5791C78297970757
:10382C000020239BA7F4FD5717070020A304F724BF
:10383C00B9338147B24022443E8541018280894799
:10384C003E85828001114EC6970900209389C9FBE1
:10385C0083A7090006CE22CC26CA4AC852C4829736
:10386C0013090064B335250303DA890081465286B7
:10387C0033052503EF90211C97070020938747EF12
:10388C00804FAA8401456306940233858440636E9D
:10389C00940003A5490052868146B335A90233052D
:1038AC00A902EF904119018D26959707002023ADB1
:1038BC0097ECF2406244D2444249B249224A056133
:1038CC0082809707002083D7C7F451471D45637C3E
:1038DC00F702794719456378F7021307200315455A
:1038EC006373F7021307B0041145637EF7001307E7
:1038FC0040060D456379F7001307600909456374A9
:10390C00F70013B5B70F8280011122CC06CE2A84A2
:10391C002EC6EFF00FC1B245F240818D33A5A50242
:10392C00229562441375F50F05618280011122CC3A
:10393C0006CE2A842EC6EFF0CFBEB245F240818D62
:10394C0033A5A5022295624442054181056182801E
:10395C00011122CC06CE2A842EC6EFF08FBCB245C4
:10396C00F240818D33B5A5022295624405618280B7
:10397C00970700209387C7E4985739CB411122C48D
:10398C0026C206C6BE840297170700200357C7DE5F
:10399C002A8415CBBA876373A700AA87C207C18391
:1039AC00BA866373E400A286C206C182958F514722
:1039BC00635BF700DC5491C38297EFE0C01C970760
:1039CC000020239B87DAB24022449244410182803A
:1039DC0082809707002083C7E7E399C7054582805B
:1039EC000545F2400561828097070020938747DDEB
:1039FC00DC57011106CEAA8581C72AC68297B2452B
:103A0C00ADCD9C41F1DFDC41E1DF83D78500E9DB03
:103A1C0083D7A500F1D74146170500201305C5DE55
:103A2C0097D0FF1FE780E03F970700209387C7DD03
:103A3C009C4317070020232FF7D69707002083C736
:103A4C0097D98DE79307805717050020035545DC60
:103A5C003305F50237460F001306062481468145CF
:103A6C00EF80717D97070020A387A7D6170500006C
:103A7C00130585DDC1340145ADB79707002023A799
:103A8C0007D097E7FF1F9387A79017070020232DD8
:103A9C00F7D67D579707002023AAE7D6B7873200C1
:103AAC00938727A19706002023A4F6D6970700201A
:103ABC00238207D6B7C7004023A4E726B5B7011168
:103ACC0022CC170400201304A4CF084406CE26CA27
:103ADC004AC801E90545F2406244D24442490561B5
:103AEC0082805C58E5DB185C75D770008545829741
:103AFC001844B247E300F7FE9305E00417050020D5
:103B0C000355C5CC97E0FF1FE78000E317070020A3
:103B1C002320A7C861D117060020035626CB930596
:103B2C00F00F97D0FF1FE780603681441709002003
:103B3C00130909C49707002083C767C90326090224
:103B4C0063C1F402328597E0FF1FE780C0ED0145A9
:103B5C009707002023AE07C29707002023AC07C2AB
:103B6C009DBF9705002083D565C6B3879502084491
:103B7C00185C898185043E9508C2029765BF0111C6
:103B8C0056C2970A0020938AAAC383A78A0022CC24
:103B9C004AC84EC606CE26CA52C45AC0AA892E841A
:103BAC0032896386072203A74A03630907141307A4
:103BBC00F01F6367A71497040020938464BB03AAC7
:103BCC00040263170A0A9565938515E01705002012
:103BDC000355C5BF97E0FF1FE78000D6970700206D
:103BEC0023A8A7BA2A86630B051083A74A0303A54B
:103BFC008A009705002083D565BD8981829783A7AC
:103C0C008A0003AA0402170700202325F7B8894766
:103C1C00639CF908C1476313F40E9705002083D504
:103C2C00E5BA938505FC9147B3C5F5028A05D29593
:103C3C0003C725009307A005631EF70A83D7050069
:103C4C00639A370B4A852286910597D0FF1FE78030
:103C5C00401D9C505285639347150145F2406244C8
:103C6C00D2444249B249224A924A024B05618280AF
:103C7C00D850E38EE7F89565938525E0170500206D
:103C8C000355C5B497E0FF1FE78000CB2A8A3DC5DA
:103C9C002A8683A74A0303A58A009705002083D5AB
:103CAC00E5B289818297A5B78D47639DF900C1471D
:103CBC006316F4049705002083D545B1938545FD23
:103CCC00F199B5B79147639AF900631934039705D5
:103CDC00002083D5A5AFA115E5B793070010639F0E
:103CEC00F900A14763EC87009705002083D505AE4A
:103CFC00C115F9B79C5052856396470D2945B9BF3C
:103D0C001D6A568B6371450B130A05E01947334A3C
:103D1C00EA0217070020035767AB970A0020938A23
:103D2C002AA5330AEA023E9A83A74A026395470101
:103D3C0083A40A029DE49305E004170500200355B3
:103D4C00E5A897E0FF1FE78020BFAA8445D9832709
:103D5C004B039705002083D565A72A868981528558
:103D6C00829791451307A005898193972500A69703
:103D7C0083C627006393E60483D60700639C36034F
:103D8C0085058A052286A6954A8597D0FF1FE78070
:103D9C00400983A70A02E38297EC268597E0FF1F70
:103DAC00E78060C85DBD21677917E369A7F4330A22
:103DBC00454185B783C5370045BF83A70A02E38F0A
:103DCC0097F2268597E0FF1FE780E0C505BF9707B0
:103DDC0000209387E7998C5395D191479306A005C2
:103DEC008983139727002E9703462700E318D6F0F4
:103DFC0003560700631C360185078A072286BE9589
:103E0C004A8597D0FF1FE780C00181BD83473700EB
:103E1C00C1BF970700209387A79A984739C79C5F23
:103E2C00A9C705476313E504411122C417040020F8
:103E3C0013040494105006C60DC648509705002074
:103E4C0083D5C59889818297085097E0FF1FE7803A
:103E5C0080BD9707002023AD07929707002023AB66
:103E6C000792B240224441018280828001111707DF
:103E7C0000201307E7944EC68329870022CC26CA5C
:103E8C004AC806CE52C456C2AA842E843289638B89
:103E9C0009201C5FBA8A99EB2945F2406244D2444E
:103EAC004249B249224A924A056182805C5BEDD755
:103EBC009307F01F63EAA70E970900209389498B9B
:103ECC0083A70902B1CB03A58A0083A74902639596
:103EDC00A70689476393F408C147E31FF4FA170553
:103EEC0000200355A58E9147130505FC3345F502BB
:103EFC009317250003A509022286CA853E959307D0
:103F0C00A0052301F50023109500110597D0FF1F84
:103F1C00E78020F1014551B79305E0041705002017
:103F2C000355C58A97E0FF1FE78000A19707002083
:103F3C0023A0A78649F98DB783A74A0303A60902D4
:103F4C009705002083D585888981829783A78A006D
:103F5C00170700202320F784ADBF8D47639EF40024
:103F6C00C147E31BF4F21705002003552586130502
:103F7C0045FD9377C5FFBDBF9147639AF400E31DE0
:103F8C0094F017050020035565842115DDB79307C0
:103F9C000010E393F4F0A147E3E087F0170500204D
:103FAC000355C5824115F1B79D676379F5069307F3
:103FBC0005E01947B3C7E70217070020035707812D
:103FCC0017FAFF1F130ACA7AB387E702BE99832731
:103FDC000A02A1CF83274A026399370703250A02F5
:103FEC0091461308A0059305F00F93D7260013975D
:103FFC0027002A9703462700631F060783580700EC
:10400C000346370063959806B306D64063CF860403
:10401C0085078A072286CA853E95CDBD216779170B
:10402C00E36CA7E6B307F54041BF9305E00417F531
:10403C00FF1F0355A57997E0FF1FE780E08F97F7E7
:10404C00FF1F23A7A77459F581BD83A74A03032635
:10405C000A0297F5FF1F83D5657789814E85829774
:10406C0097F7FF1F23A8377395BF2310B70093163C
:10407C000601C1829DBFB385860017F6FF1F03564C
:10408C00E6749105130606FCE3F8C5E0130634004C
:10409C00719A1106B2962301070123109700A30110
:1040AC00D700BDB797F7FF1F9387876C9453BE89D2
:1040BC00A9C203A5090291461308A0059305F00FA8
:1040CC0093D72600139727002A97034627006318D7
:1040DC000605835807000346370063989800B3061B
:1040EC00D640E3D786F22310B70093160601C1829F
:1040FC00C1BF8357C70017F5FF1F0345456D9305D7
:10410C00E0043305F5024205418197E0FF1FE7808B
:10411C00A08297F7FF1F23ADA76641FDB5BB17F62D
:10412C00FF1F0356A66A97F5FF1F83C5456AB38523
:10413C00C502338686001106E3E0C5D681BF014572
:10414C008280011106CE2EC6EF70007C01C9B245EB
:10415C00F2400355250005616FB0F011F24049455E
:10416C0005618280A38A0186238A018623AE01849D
:10417C0023A0018623A2018623A4018623AC0184FB
:10418C0023AA018497F7FF1F9387076B9306403888
:10419C002391D702F1761307400B938606B823912F
:1041AC00E7002392D70211679D461306000593057D
:1041BC00000A1305007D2392E7002393D7024147A1
:1041CC008546130810F82395E7002396E7002399FA
:1041DC00E700239AE700239BE700239CE700239446
:1041EC00E702239007002393B7002394B70023978B
:1041FC00C7002398C700239DA700239E0700239F79
:10420C000700239007022395D702239607032397D1
:10421C0007029308F007239807022392E7042393DD
:10422C00E704239FE7042390E7062391E7062392F4
:10423C00E706239917031307C01C239AD702239B65
:10424C00D702239C0702239D0702239E0702239F6C
:10425C000702239007042391D70423940704239582
:10426C0007042396D7042397C7042398C7042399DC
:10427C00A704239A0704239B0704239C0704239D6C
:10428C00C704239EC7042393A706239407062395EC
:10429C000706239607062397B7062398B706239994
:1042AC000706239AE7065147239DE7067D57239B74
:1042BC000706239C0706239ED706239F07062390F9
:1042CC0007092391E7088280011126CAAA84214597
:1042DC0022CC06CE2E8432C636C43AC2EFE08FF919
:1042EC001DC9A24612473246930700FD2300F50074
:1042FC009947A30095002301F5002303D500A303E0
:10430C00E5002312C500AA8522856244F240D244FE
:10431C0005616FE01F85F2406244D24405618280E2
:10432C0023AEA184828023A0A186828023A2A186B1
:10433C00828023A4A1868280011122CC4AC806CE99
:10434C0026CA2A890144B30489006368B400F24088
:10435C006244D2444249056182802EC6EFE07F9CC4
:10436C0093170501C183A183B2452380F400930701
:10437C00140093F7F70F850463F9B700CA97090483
:10438C002380A7001374F40F7DBF3E847DBFC167EB
:10439C0017F5FF1F0355A548FD176304F5024111DE
:1043AC0017F6FF1F0346065D9385C18606C6EF70A0
:1043BC00A033B240FD5717F7FF1F2312F7464101F8
:1043CC008280828009C925151375F50F1335850E6A
:1043DC001345150082800145828023900500C9C6D3
:1043EC00797122D426D24ECE52CC5AC806D64AD097
:1043FC0056CA5EC63684328AAE892A8B814463F3F0
:10440C004407B307940083C70700138914004209BB
:10441C00939A070193DA0A011359090163840A0478
:10442C00CA976341FA04B307240183CB07005E8566
:10443C00513F0DC99387FAFF2390F90063906B03EA
:10444C00130519002295B250225492540259F24984
:10445C00624AD24A424BB24B45618280D694C20426
:10446C00C18071BF0145C5B701458280411126C28B
:10447C00AE8422C497F7FF1F23AAC73A97F7FF1FF2
:10448C0023A4B73A97F7FF1F23AEA7382A844146D7
:10449C009305F00F26854AC006C6054997D0FF1F25
:1044AC00E78020B16310250597F7FF1F9387C73668
:1044BC00884BC145513541469305F00F228597D065
:1044CC00FF1FE78000AF854463189502224497F7DD
:1044DC00FF1F93876734B24092440249C847C145D5
:1044EC00410199BD41468145268597D0FF1FE78044
:1044FC0040ACE31225FD4DBF41468145228597D046
:10450C00FF1FE78000ABE30395FCB24022449244CA
:10451C00024941018280411122C426C22E84AA8400
:10452C0013060002814517F5FF1F1305E52E06C67D
:10453C0097D0FF1FE780809597F7FF1FA38F972CCD
:10454C0097F7FF1F238A8742EFB0E054854719C1C4
:10455C0081474945B240224417F7FF1F230EF72A23
:10456C00924441018280814781CD19C98547631BE3
:10457C00F50083C7550093E707FCA382F500854738
:10458C003E85828089476317F50083C7550093F7F2
:10459C00F703E5B70D478547E314E5FE03C7550060
:1045AC001377F70313670704A382E500D1BF814794
:1045BC008DC105C103C755009306000C85471377C1
:1045CC00070C6308D700930600048D476303D700DC
:1045DC0089473E858280411122C4005D06C626C2F1
:1045EC001DC8AA84085009C597D0FF1FE780A043B7
:1045FC00485009C597D0FF1FE780E042085409C511
:10460C0097D0FF1FE7802042228597D0FF1FE780BD
:10461C00804123AC0402B240224492444101828086
:10462C0009ED97F7FF1F83C7471F17F5FF1F1305EA
:10463C00252081CB1385C184828017F5FF1F1305BC
:10464C00251F828017F5FF1F0345251D828097F7D4
:10465C00FF1F9387671CC847828097F7FF1F9387BC
:10466C00A71B884B828097F7FF1F9387E71ADC4BB9
:10467C008843828097F7FF1F9387071AD84B1C43F8
:10468C0085071CC317F5FF1F034535199307F00F5A
:10469C006305F50091656FE07F818280011122CC6A
:1046AC0006CE2E8432C6EF70E0369147B245631FBA
:1046BC00F500938781869C438DC303A30700630E8B
:1046CC00030022856244F2400561028393870186D0
:1046DC009C4381C703A34700DDB7F2406244054504
:1046EC0005618280011122CC2A840355450006CE37
:1046FC0026CA4AC84EC6EF70001035C52A898344B5
:10470C0005008349C500C13D4A85EF70C06B035558
:10471C004400EF70602B83C74187B1CB639997043A
:10472C0083C551872685EFF0DFA119E1238A018625
:10473C0003554400EF70002E9147631FF50003579B
:10474C00440097F7FF1F83D7870D6317F700FD57BA
:10475C0017F7FF1F2315F70CF2406244D24442496D
:10476C00B2490561828081499304F00F6DB79307BC
:10477C00F00FE38FF4FA83466400035644000345BC
:10478C0024004E87A685893665B779715EC6AA8BDB
:10479C002E8552CC56CA5AC806D622D426D24AD016
:1047AC004ECEAE8A328B368AEF70E0047DC1045D4A
:1047BC002A89E5C09C50614599C3130540039C545C
:1047CC0081C751054205418163050A007105420507
:1047DC004181DC5081C75D0542054181EFE08FA925
:1047EC002A8445C96146814597C0FF1FE780006A4E
:1047FC0097F9FF1F83C9490763940900834909008E
:10480C00930700FD2300F400A947A30074012301C2
:10481C00F400230364018C5023125401130584010A
:10482C0091C908C47146930A440397C0FF1FE780DF
:10483C00405F56858C5491C948C45146930A450132
:10484C0097C0FF1FE780E05D5685630C0A0008C81F
:10485C007146D285930AC50197C0FF1FE780605C43
:10486C005685CC5099C548C85D4697C0FF1FE78058
:10487C00405BA2854E85EFE0CFAE2254B2509254ED
:10488C00F249624AD24A424BB24B4A8502594561BF
:10489C0099B3B250225492540259F249624AD24A04
:1048AC00424BB24B4561828001114EC6AA892E85BE
:1048BC004AC806CE22CC26CA2E89EF60D07321C9F5
:1048CC0097F4FF1F83C444FA99E08344050019450B
:1048DC00EFE04F9A2A8405CD8145194697C0FF1FFA
:1048EC00E780C05A930700FD2300F400B947A300EA
:1048FC0034012301F40023122401A2856244F24006
:10490C004249B2492685D24405616FE08FA5F24039
:10491C006244D2444249B2490561828039715ECE0B
:10492C00AA8B2E8526DA4ED652D456D25AD006DE13
:10493C0022DC4AD8AE84328BB68A3A8ABE8942C609
:10494C00EF60706B21CD2A894145EFE0AF922A844C
:10495C0031C54146814597C0FF1FE780205317F5AD
:10496C00FF1F034565F019E103450900930700FD9E
:10497C002300F400BD472301F400B247A3007401E7
:10498C002312940023046401A3045401230544015D
:10499C00A30534015CC4A285EFE0AF9CF2506254D5
:1049AC00D2544259B259225A925A025BF24B2161AB
:1049BC008280797126D2AA8439454AD04ECE06D649
:1049CC0022D42EC6B2893689EFE0CF8A21C1B245F6
:1049DC009307000D2310F500B1472A842312B5006C
:1049EC002301F500CE851905194697C0FF1FE780F6
:1049FC00404323062401A2852254B2500259F249A5
:104A0C0013F5F40F925445616FE0AF95B2502254F8
:104A1C0092540259F2494561828017F7FF1F0347F0
:104A2C00D7DF9307F00F630DF706411126C2AA8456
:104A3C00394522C406C64AC0EFE0CF832A8439C95F
:104A4C00930700FD2300F500A3009500230105004A
:104A5C0097F5FF1F9385C5DD0D05194697C0FF1F00
:104A6C00E780203C17F9FF1F130909DB83578900E6
:104A7C00A28517F5FF1F034555DA2315F40083476C
:104A8C0019002306F4002244B24092440249410129
:104A9C006FE02F8DB2402244924402494101828042
:104AAC00828001115AC02A8B314526CA4EC652C487
:104ABC0056C206CE22CC4AC8AE84B28A368ABA898D
:104ACC00EFD05FFB35CD2A842685EF60D05211C51F
:104ADC000347C500A1476314F70417F9FF1F0349E7
:104AEC00D9D3930700FD2300F4009D47A300640174
:104AFC002301F400231294002313540123144401C2
:104B0C0023153401A2856244F240D244B249224AB0
:104B1C00924A024B4A85424905616FE08F8417F92E
:104B2C00FF1F034979E5E31E0BFA938701909C4321
:104B3C009C47C5DBCE865286D6852685829755B78F
:104B4C00F2406244D2444249B249224A924A024B50
:104B5C0005618280011122CC2A84214506CE2EC605
:104B6C00EFD05FF121C1B245930700FD2300F500A2
:104B7C00C5472301F50083C73500A301F50083D792
:104B8C0045002312F50083C765002303F50083C796
:104B9C007500AA85A303F50022856244F2400561E5
:104BAC006FD03FFCF240624405618280397162CC67
:104BBC002A8C594526DA4AD84ED652D456D25AD0D7
:104BCC005ECE06DE22DCAE8432C636C4BA8B3E8B99
:104BDC00C28A468A8359010403494104EFD09FE9F4
:104BEC0025C93246930700FDA2462300F5009547E0
:104BFC00A301C500A30085012301F5002A841946F1
:104C0C001105A9C2B68597C0FF1FE7808021230636
:104C1C006401230A2401231574012317540123185A
:104C2C00440123193401A2856254F2504259B259FD
:104C3C00225A925A025BF24B624C2685D254216165
:104C4C006FD03FF2814597C0FF1FE7802024C1B78A
:104C5C00F2506254D2544259B259225A925A025BBF
:104C6C00F24B624C2161828097F7FF1F83C7E7BA32
:104C7C008DCB4111AA8519461385C18406C697C0F0
:104C8C00FF1FE780001A9385C18417F5FF1F0345AA
:104C9C00C5B8EFF05F8DB2401385C18441016FA0A0
:104CAC0010600145828017F7FF1F034717B7930762
:104CBC00F00F6305F708411126C2AA84294522C4C6
:104CCC0006C6EFD03FDB2A8429C1930700FD2300E1
:104CDC00F500A1472301F500A300950097F7FF1FEE
:104CEC00938787B383C727009385C1841105A30FCE
:104CFC00F5FE194697C0FF1FE780A012A28517F595
:104D0C00FF1F034595B1EFD0DFE517F7FF1F0347F2
:104D1C00C7B08D47631FF700938741869C4391CBA7
:104D2C0003A38700630703002244B240924441016D
:104D3C000283B240224492444101828017F7FF1F44
:104D4C000347A7AD8D47631AF700938741869C43B1
:104D5C0089C703A38700E31D03FC8280797122D4E9
:104D6C0006D626D24AD04ECE52CC094455CD2A89ED
:104D7C00035505002E8A5144EF60F027AA844DC5D7
:104D8C0097F7FF1F83C747BFFD1793F7F70F05472B
:104D9C004944637BF7080347C500A1476314F70038
:104DAC0063140A089C5C4544C1E391659385457185
:104DBC001305C00297D0FF1FE78000B888DCAA89D2
:104DCC004D443DC11306C002814597C0FF1FE780CB
:104DDC00E00B835709009386490036852391F9002F
:104DEC0071469305490036C697C0FF1FE7806003E4
:104DFC0089472380F90003C5C400B2460356090055
:104E0C00611597F5FF1F83C5E5B613351500EF70D7
:104E1C00D0412A8463060A00D2852685EF70802A49
:104E2C0001C42685EFF02FFB2285B25022549254F8
:104E3C000259F249624A4561828097F7FF1F83C786
:104E4C00A7B3FD1793F7F70F0547637AF708894760
:104E5C0041CA011122CC26CA4AC84EC652C406CE3B
:104E6C00AA89368AB2842E89EF60F0182A84D14739
:104E7C0039C9485509C597D0FF1FE780C0BAF1451D
:104E8C00268597C0FF1FE780000648D4CD4705CD87
:104E9C008346C40021478147639FE600630D0A00E7
:104EAC000347A5010356050193062501AA854E85E6
:104EBC00EF700029AA8703474400630F09001367AA
:104ECC0067002302E400F2406244D2444249B249F2
:104EDC00224A3E850561828013674700DDB7C947CA
:104EEC003E8582809307000463EBA70097F7FF1FB2
:104EFC009387879406053E9503550500828041658E
:104F0C007D158280011122CC2A842E8526CA06CEDC
:104F1C00AE84EF60500E1DCDB7470F009387F7237B
:104F2C00094563E4870281450A85414697C0FF1F06
:104F3C00E780C0F5A685231081000A8541802301F6
:104F4C008100A3010100EF70101AF2406244D244B8
:104F5C00056182804945D5BF97F7FF1F238DA7A018
:104F6C0082806F70B026797152CC2A8A328522D415
:104F7C0026D24AD04ECE56CA5AC85EC606D662C48F
:104F8C00AE8BB28A368BBA843E89C2894684EF6076
:104F9C00900615C92A8C63140A0213774B008347B9
:104FAC00450015CF93E727012302FC008DEC631C11
:104FBC000902639A090205E8ED9B2302FC00832B8E
:104FCC008C0363910B08B250225492540259F2494B
:104FDC00624AD24A424BB24B224C45618280F59BCD
:104FEC0093E70701D1B793E747002302FC0001CCFC
:104FFC001C484146A2852324FC0213058C0197C052
:10500C00FF1FE78000E263930B02D5D80325CC0287
:10501C0009C597D0FF1FE78000A1F145268597C0F1
:10502C00FF1FE78040EC2326AC0251BFE30909F8CF
:10503C000325CC0209C597D0FF1FE780C09EF14520
:10504C004A85F1BF9DC483A70B0299EB91659385AB
:10505C003571714597D0FF1FE780008E23A0AB02FE
:10506C0003A50B0219C57146A68597C0FF1FE780E3
:10507C0040DB6388090283A74B0299EB916593850A
:10508C0025715D4597D0FF1FE780008B23A2AB02F3
:10509C0003A54B0219C55D46CE8597C0FF1FE7805F
:1050AC0040D81DC483A78B0299EB9165938515712C
:1050BC00514597D0FF1FE780208823A4AB0203A59E
:1050CC008B0219C55146A28597C0FF1FE78060D59A
:1050DC002254B2509254F249B24B224CCA865A8690
:1050EC000259424BD6855285D24A624A45616FF0CD
:1050FC00CFE9011126CA52C406CE22CC4AC84EC6EC
:10510C002A8AAE84EF60206F25C5AA893945EFD075
:10511C007F962A8431CD17E9FF1F0349E974631484
:10512C00090003C909009307000D2310F400AD47D3
:10513C002301F4009385690013053400194697C0C8
:10514C00FF1FE78000CE93F7140085808588230627
:10515C00F400A306940023154401A2856244F24096
:10516C00D244B249224A4A85424905616FD07F9F99
:10517C00F2406244D2444249B249224A05618280DB
:10518C0001114EC652C456C206CE22CC26CA4AC8FB
:10519C00AA8A2E8AB289EF6000662DCD2A89130562
:1051AC00C002EFD03F8D2A8435C597E4FF1F83C41E
:1051BC00A46B99E0834409009307000D2310F400BD
:1051CC00E9472301F40093056900130534001946DF
:1051DC0097C0FF1FE780E0C4D28523155401130547
:1051EC00C400414697C0FF1FE780A0C3CE851305BE
:1051FC00C401414697C0FF1FE780A0C2A28562444C
:10520C00F2404249B249224A924A2685D24405616B
:10521C006FD03F95F2406244D2444249B249224A8F
:10522C00924A0561828093874185884301CD411163
:10523C0006C697C0FF1FE780007FB24023AA0184F7
:10524C00410182808280011106CE22CC26CA4AC836
:10525C002EC6EF60405A39CDB24517E9FF1F0349FE
:10526C00A960AA840CD563140900034905004145C3
:10527C00EFD05F802A841DCD9307000D2310F5001D
:10528C00A5472301F50083C75400938564001105DD
:10529C00A30FF5FE194697C0FF1FE78080B89C54FA
:1052AC00A285F2405CC46244D2444A8542490561FD
:1052BC006FD03F8BF2406244D244424905618280F8
:1052CC00797122D406D62A842EC6EF60C05201CD45
:1052DC00B2452285230EB1006C08EF60305BB250F2
:1052EC002254456182805145DDBF6F606067C167A4
:1052FC001387E7FF6394E502938701869C4391EB48
:10530C00494582804945B2402244924402494101B8
:10531C00828003A30700E30503FE0283411122C42C
:10532C0026C24AC006C6FD172A892E84B28463950C
:10533C00F502938701869C4391CB9C4381CB82974A
:10534C0011E5238A2187A38A918675BFA6854A8594
:10535C00EFE03FDF4DF9F5B72E85EF60C0495DD129
:10536C00834705000D45E39027FB22852244B2407C
:10537C000249A685924441016FA0E06F9307000497
:10538C0063E2A7064111C16722C406C626C2FD17F7
:10539C002A8409456382F502C547AE846313F4027F
:1053AC002E85EFA0407417E5FF1F1305E548060492
:1053BC002A94231094000145B240224492444101A6
:1053CC0082809307A0036316F4002E85EFA0206B58
:1053DC00D9BF9307B003E318F4FC13F5F50FEFA056
:1053EC00406AD1B709458280011106CE2AC6EFE08A
:1053FC007FD7EF204021EF108060EF20A10C3245C9
:10540C0097E7FF1F93874741130700F02391E700AD
:10541C00238207007D5797E7FF1F9387A7552381AA
:10542C00E7002380A700F240954505616F40904F3F
:10543C00597193970501CAD086D6A2D4A6D2CECEE6
:10544C00D2CCD6CADAC8DEC6E2C4E6C2EAC06EDE88
:10545C00C1872E8963D1075A17E5FF1F0345855174
:10546C00EFD0CFE78964416A856A797B2A84938B74
:10547C00D4007D1AA50A130CABFF1DE02165334542
:10548C00A900B650265496540659F649664AD64A8F
:10549C00464BB64B264C964C064DF25D65618280B0
:1054AC00834704001307200A639DE700035524007B
:1054BC0097E9FF1F83C979362286D285EFF00F9EBC
:1054CC0059A21307100997E9FF1F83C9C94A6398AA
:1054DC00E7188347140015476390E7022285EFF025
:1054EC006FA02285EFD02FD417E5FF1F0345854809
:1054FC00EFD0CFDE2A8451B73947639BE7180355A9
:10550C004400631B55050C4483CC0500639D0C00C3
:10551C00850591C9194617E5FF1F1305653197C01D
:10552C00FF1FE780009017E7FF1F0347E72E854713
:10553C006317F712638A0C0097E7FF1F238E072C63
:10554C006685EFF08FCD71BF894717E7FF1F2305E5
:10555C00F72CEFA0805471B793872400631AF506DB
:10556C00832C8400638D0C0E83C70C008DE383C7E2
:10557C002C0003C71C00A207D98F17E7FF1F2311AC
:10558C00F72A83C73C0017E7FF1FA307F72817E785
:10559C00FF1F0347672889476313F70C83C70C0069
:1055AC0081CB97E7FF1F2389072603C50C0051BF4A
:1055BC008D4797E5FF1F83C5352617E5FF1F03555C
:1055CC00252617E7FF1F2309F724EF40B038F1BF5A
:1055DC00938754006318F5001C4403C50700EFF0D3
:1055EC008FEC01B7B3078501C207C1831147637202
:1055FC00F7049307ABFCAA97139707014183F14774
:10560C0063F1E7029387B4006312F5049387C185B5
:10561C009C43E38807EC9C43A285E38407EC8297C8
:10562C001DA0B70700189387F770B3D7E700858BD9
:10563C00B9CB938741869C43E38507EA9C43E3827D
:10564C0007EA22858297E31E05E811A89387C40018
:10565C006310F5021C4483C70700E38407E8930733
:10566C00F00FE380F9E8A2854E85EFD08FCFADBD6A
:10567C009387E4006319F500938701869C43E382CA
:10568C0007E6DC4351BF93871404E301F5F8C1BF6F
:10569C003D476397E70403554400E30F75FD93877B
:1056AC009401E30BF5FC93873401E31AF5FA97E7C1
:1056BC00FF1F83D7C716639E4701938701869C43C0
:1056CC00E38107E2DC43E38E07E0A2851385340116
:1056DC00B9B7938781869C43E38507E09C43E5B784
:1056EC001307E003E39DE7F6834724000547639720
:1056FC00E70E83476400938D4185F1E383A70D008A
:10570C00D5CB83CC0700A14903457400130D84004D
:10571C00EA85EFE0DFE983474401A303A400835843
:10572C0004010358E400035744002A86034534005F
:10573C003EC283572401EA86E6853EC0CE87EFF051
:10574C00EFC68347340095E7DD47835804010358BF
:10575C00E40083467400835544003EC28357240101
:10576C006A8705463EC06685CE87EF60403DA30143
:10577C00A40083A70D0081C71145EFF0DFAA03C574
:10578C004187E30005D683C55187EFE09F9BE30A71
:10579C0005D48346340093071003638AF60003563E
:1057AC0044004E8783C541873685EFE0FFB1238ADD
:1057BC00018605BB97ECFF1F83CC3C06A9B79387EA
:1057CC0041869C4397ECFF1F83CC3C0591498DDFB0
:1057DC00DC439DDB8145014582973DB729476391A9
:1057EC00E70C83476400138D4185C1E783270D00C7
:1057FC00A5CF83CC0700A149034574009306840010
:10580C0093772500D1C713761500930D4401834778
:10581C0004028358C4010358A401035744000345F0
:10582C0034003EC28357E401E6853EC0CE87EFF0DC
:10583C00EFB78347340095E7DD478358C40103581D
:10584C00A40183467400835544003EC28357E4018F
:10585C006E8705463EC06685CE87EF60402EA3015D
:10586C00A40083270D0001BF97ECFF1F83CCFCFA2B
:10587C0059B7938741869C4397ECFF1F83CCFCF967
:10588C009149BDDBDC43ADDB814501458297ADB76A
:10589C00B68536CEEFE0BFD1F2462A86B68D85BFEF
:1058AC000947639DE7009387C1859C43E38B07C23F
:1058BC00DC43E38807C22285829725B12D47639983
:1058CC00E7009387C1859C43E38D07C09C47D5B700
:1058DC000D476397E70022868D4503554400F9BEBA
:1058EC0019476395E7069305610213051031EF1014
:1058FC00D1452C1013052031EF10314503566400AF
:10590C00835781020355440063E8C7008356840023
:10591C000357610263F7E60093050002EFA0A01B9A
:10592C00C9B66374E6002313E40063F4D7002314B0
:10593C00F4000357C4008356A40003568400835517
:10594C00640001488147EFA0C01861BE1D47E38881
:10595C00E7D031476395E7002286B145BDBF354797
:10596C006399E7009387C1859C43E38C07B6DC47BA
:10597C0089B739476396E7002285EF00D00395B6C7
:10598C003D476399E7009387C1859C43E38B07B43C
:10599C009C4B05B741476396E7002285EF00900CBE
:1059AC0089B645476396E7000145EF00701B15BEAD
:1059BC004947639EE700938741869C43E38107CA6E
:1059CC00DC43E38E07C881450545829749B94D47AD
:1059DC00639DE700938741869C43E38207C8DC43C1
:1059EC00E38F07C6A2850945CDB76147E399E7C6A2
:1059FC002286E145DDB593F7150081CF9387C185EC
:105A0C009C4389C7DC4399C3014582971345190010
:105A1C008DBC93F7250089CF938741869C4391C712
:105A2C00DC4381C78145054582971345290091BC0C
:105A3C0093F745000145E38607A4938781859C4332
:105A4C0099CF854717E7FF1F230AF7DC9387418619
:105A5C009C4391C7DC4381C781450545829797E7F5
:105A6C00FF1F938767DBC8472C10EF60305428105A
:105A7C00EFF08F9F97E7FF1F83D727DE81CF1306A9
:105A8C0000643386C702914517E5FF1F034585EE79
:105A9C00EFD0AFD813454900EDB2011122CC2A84C6
:105AAC00554506CE26CAEFF0EFC3AA841305400273
:105ABC00EFF04FC32AC613055002EFF0AFC2AA860F
:105ACC00228562443246F240B3359000D2440561DF
