:040000006F105065C8
:100004000000000000000000900000206C070020A9
:10001400A9BDF9F52408002000000000000000003C
:1000240024080020900000200000000000000000D0
:10003400900000200000000090000020000000005C
:100044009000002090000020E60A0020900000208C
:1000540090000020801D002090000020000000007F
:1000640090000020900000209000002090000020CC
:100074008A080020900000209000002090000020BA
:1000840090000020900000209000002090000020AC
:1000940001A04111814601468145114506C6EF0084
:1000A400B039B727004011472383E780B7F700E052
:1000B400938707D0984B6D9B98CB984B5D9B98CBBF
:1000C4007300501001000100B2404101828001110F
:1000D400814601468145114506CEEF00F035B7272C
:1000E400004011472383E780B717004083C6E70227
:1000F40003C5E7041307800893F6C60F136535009C
:1001040093E61600733607801376860832C0010022
:100114000100930570052380B704130680FA238039
:10012400C704010001002382070223800704024858
:100134007328088001000100733807801378880849
:1001440042C2010001002380B7042380C7040100D8
:1001540001002387D7022387A7042380070492463C
:10016400F3A6068001000100F336078093F68608A3
:1001740036C4010001002380B7042380C7040100B2
:10018400010083C6B70493E60602A385D70423803F
:100194000704A246F3A6068001000100B7F600E0BA
:1001A400938606D0884A1365450088CA884A5D99B3
:1001B40088CA730050100100010073370780137759
:1001C40087083AC6010001002380B7042380C704CE
:1001D4000100010003C7B7041377F70DA385E704F3
:1001E40023800704B247F3A7078001000100F2400F
:1001F400056182803971B7F5070022DC81462A84C3
:100204003010E105194506DE02D423160102EF0081
:10021400B022B717004083C6E70203C5E7041307FB
:10022400800893F6C60F1365350093E616007336FF
:1002340007801376860832C6010001009305700515
:100244002380B704130680FA2380C7040100010049
:1002540023820702238007043248732808800100A0
:100264000100733807801378880842C80100010030
:100274002380B7042380C704010001002387D70229
:100284002387A70423800704C246F3A6068001003F
:100294000100F336078093F6860836CA0100010090
:1002A4002380B7042380C7040100010083D607021A
:1002B40071757D15E98E2390D70223800704D246F9
:1002C400F3A606800100010037F500E0832605D17E
:1002D40093E646002328D5D083D607026575110519
:1002E40093F60660C18EC98EC206C182733507803B
:1002F400137585082ACC010001002380B7042380EC
:10030400C7040100010003C5F70013650504A387B2
:10031400A7002390D70223800704E246F3A60680B1
:10032400010001009166758C1DE87337078013770F
:1003340087083ACE010001002380B7042380C70454
:100344000100010003C7B70413670702A385E7048C
:1003540023800704F247F3A707800100010037F761
:1003640000E0832707D1DD9B2328F7D073005010CA
:100374000100010013078008F337078093F787080B
:100384003ED001000100B71700401305700523801B
:10039400A704930580FA2380B7040100010083D6E3
:1003A400070271767D16F18E2390D702238007040D
:1003B4008256F3A60680010001000DEC7337078016
:1003C400137787083AD2010001002380A704238011
:1003D400B7040100010003C7B7041377F70DA38521
:1003E400E704238007049257F3A707800100010064
:1003F4005145ED2EF250625421618280397152D4FC
:1004040081462A8A01468145114522DC26DA06DE28
:100414004AD84ED637140040EF0010028347E40256
:100424000347E4049304800893F7C70F1367370066
:1004340093E71700F3B6048093F6860836C60100E6
:1004440001009309700523003405130980FA230081
:100454002405010001002302040223000404B2461F
:10046400F3A6068001000100F3B6048093F6860823
:1004740036C80100010023003405230024050100CF
:1004840001002307F4022307E40423000404C24701
:10049400F3A707800100010013055002D928B7F71C
:1004A40000E0938707D0984B1367470098CB73B746
:1004B4000480137787083ACA010001002300340539
:1004C40023002405010001000347F4001367070417
:1004D400A307E400230004045247732707800100A4
:1004E400010073B70480137787083ACC0100010038
:1004F4002300340523002405010001002167336A29
:10050400EA0023104403230004046247732707808E
:1005140001000100984B5D9B98CB730050100100C3
:1005240001008146014681451145EF00E070F3B4B6
:10053400048093F4840826CE0100010023003405CE
:1005440023002405010001008347640493E7170096
:100554002303F40423000404F247F3A707800100F3
:100564000100F2506254D2544259B259225A2161C4
:100574008280011113078008F337078093F78708F7
:100584003EC201000100B7170040930570052380A7
:10059400B704130680FA2380C7040100010083C650
:1005A400B70493F6F60DA385D70423800704924677
:1005B400F3A606800100010093760502D5CEF3363A
:1005C400078093F6860836C4010001002380B7042F
:1005D4002380C70401000100B70614007D89558DEE
:1005E40088C7010001000100010023800704A2461E
:1005F400F3A606800100010073370780137787088C
:100604003AC6010001002380B7042380C704010017
:100614000100010001003727004093061005A303E1
:10062400D78023800704B247F3A7078001000100A5
:1006340093078008F3B7078093F787083ECE01003D
:100644000100B7170040130770052380E704130760
:1006540080FA2380E7040100010003C7B70413678D
:100664000708A385E70423800704F247F3A707805C
:10067400010001000561828093760504BDC6F3364E
:10068400078093F6860836C8010001002380B7046A
:100694002380C70401000100B706140093860604F2
:1006A4007D89558D88C70100010001000100238068
:1006B4000704C246F3A606800100010073370780D1
:1006C400137787083ACA010001002380B704238006
:1006D400C704010001003727004093062005A30347
:1006E400D78023800704D24781B7733707801377F5
:1006F40087083ACC010001002380B7042380C70493
:100704000100010098471367070C98C7238007046A
:10071400E24719BF0111814601468145114506CEC4
:10072400212B93078008F3B7078093F787083EC609
:1007340001000100B7170040130770052380E70488
:10074400130780FA2380E7040100010003C767044C
:10075400136717002383E70423800704B247F3A732
:10076400078001000100F240056182804111814649
:10077400014681451145C92113078008F3370780D5
:1007840093F787083EC401000100B7170040130621
:1007940070052380C704930680FA2380D7040100E0
:1007A4000100FD552396B70223800704A245F3A553
:1007B40005800100010073370780137787083AC664
:1007C400010001002380C7042380D7040100010035
:1007D40003C76704136717002383E7042380070410
:1007E400B247F3A707800100010001A0BD4733050C
:1007F400F50201007D1575FD8280411122C426C2D7
:1008040006C6AA84014463179400B2402244924469
:100814004101828005041305803E4204C13F4180AA
:10082400DDB700009305000273A0458082457390F4
:10083400153492402242B2424243D2436244F244CB
:10084400025592552256B2564257D2576258F25820
:1008540006499649264AB64A464BD64B664CF64C50
:10086400065D965D265EB65E465FD65F09617300DF
:1008740020304111B7170040985F3AC6945F324761
:10088400E39CE6FE324541018280B717004013071E
:1008940000032388E702854723A0F18473002030F6
:1008A400411122C426C21384418406C6971000E075
:1008B400E780806E8347040005479384018585079C
:1008C40093F7F70F2300F4006398E700971000E014
:1008D400E78060632390A400834704001307800C1F
:1008E400B3F7E70239472300F400B7170040238C1D
:1008F400E704971000E0E780C06C83970400B240DF
:1009040022443E959307A0413305F5029307002046
:10091400924441013345F502FD779387273B3E9589
:10092400420541818280411106C69D3F85679386B9
:1009340087BB1307400663EEA600938607AF130731
:10094400C00363E8A6009387479C794763E3A70045
:100954002947B2402387E18441018280834705000F
:1009640005476385E70011476397E7002380F50097
:10097400230005008280238005008280411106C681
:100984005D3783C7E184971500009385654D138512
:100994009184171700002304F74CC93797150000FA
:1009A4009385254C13858184553F971500009385C5
:1009B400654B138571845D37B240971500009385AC
:1009C400854A13856184410151BF797126D2AA8475
:1009D400514522D44AD02E844ECE06D632C636890C
:1009E400293DB717004003A7470CB24583470400CD
:1009F400658F9389518415E385072300F4002254FD
:100A040003C50900B25092540259F2491306000A70
:100A14004561173300E06700A3879546054763F3F4
:100A2400F60011472300E9002685230004008945C8
:100A3400972000E0E780E094225403C50900B250F7
:100A440092540259F249930500084561172300E0C6
:100A54006700236D011122CC26CA4AC84EC652C46F
:100A640006CE938451850544138941859389318544
:100A7400138A2185EF00100883C70400639B870055
:100A84004146A1450145A38A0184973000E0E780EF
:100A9400208083470900639B87004146C145014587
:100AA400A38A0184972000E0E780807E83C7090041
:100AB400639C87004146930500020145A38A018493
:100AC400972000E0E780C07C83470A00E39487FA1C
:100AD4004146930500040145A38A0184972000E060
:100AE400E780007B41BF371700408357E7098566DD
:100AF400F58F81CF8547A38AF1848567231FF70883
:100B04000565972000E0E78080863717004083570B
:100B1400E7098966F58F81CF8547238AF184896740
:100B2400231FF7080965972000E0E7804084371702
:100B340000408357E7099166F58F81CF8547A389E4
:100B4400F1849167231FF7081165972000E0E7807F
:100B54000082371700408357E709C207C18763DD66
:100B6400070085472389F184E177231FF70821656E
:100B7400971000E0E780A07F7300203023030480F7
:100B840015472303E48001002302A48082808307A5
:100B94006480E3CE07FE230304808280830764809D
:100BA400E3CE07FE03454480828083076480E3CE5E
:100BB40007FE2302A4808280411126C44AC24EC08B
:100BC40006C61377F50BAD47AA892E8995446306AB
:100BD400F70019456537653F8D444E854537FD5906
:100BE400FD1463983401B240A24412498249410180
:100BF4008280135509011375F50F453F2209CDB7BE
:100C0400011126CC06CEB704080051371545BD376F
:100C1400713769372AC6A53F32459377150089EBAA
:100C2400136515001375F50FF240E24405618280E7
:100C3400FD14E9FC0145CDBF397126DC4ADA4ED8F2
:100C440052D656D45AD25ED006DE62CE66CCB7E710
:100C540000E07D5783AA070022C603AA470023A009
:100C6400E71823A2E718B71700401307700523807D
:100C7400E704130780FA2380E70483C74704930B30
:100C840075FFB684E20793FBFB0F8546AA892E8B7A
:100C9400328937240040E187015763FA76016308FB
:100CA400D5008946130700026313D5000157D98F75
:100CB40093F7F70FB71C00402382FC04114723036A
:100CC400E4801305F00F5D3D094CD135636D7C1153
:100CD400B7050700DA9537870700795563F2E5040D
:100CE400B3879500636EF702370B0800A94733EB0F
:100CF40065016399F90689E48144513D26850DA077
:100D0400DA850945553D05090345F9FFFD14050B31
:100D1400693D81C49377FB0FFDF7DD3569FD7D5592
:100D2400B7170040130770052380E704130780FA00
:100D34002380E70403C74704418B2382E704F2506E
:100D4400B7E700E023A0571123A24711E25432442D
:100D54005259C259325AA25A125B825B724CE24C0B
:100D640021618280A5476395F90685691309F00F0F
:100D7400B3069900B3742B01B6941349F9FFB37405
:100D84009900856B33796901416B9387F9FFB3F758
:100D9400270199E363FC340193D94900C147E3E691
:100DA40037FF99BF0569C1697D19D9B71305800D4E
:100DB400638869011305000263847901130510082F
:100DC400CA85DD3B353D21DD4E99B3843441D9B725
:100DD400DA852D45D533CA94E30099F205097D3BA4
:100DE400A30FA9FED5BF9387F9FF93F7F70F6361AC
:100DF400FC0C83C71C0413073008631FF704370770
:100E04000800636BEB04B3079B00B706100063F59F
:100E1400D704334BEB0089476393F9068980D5499E
:100E2400E38C04ECDA850945413B11090327C9FF2A
:100E340091472320E48003076480E34E07FE2303E5
:100E44003481FD17EDFBFD14110B81C49377FB0F67
:100E5400E9FF7D3371F5E1B5B717004003C75704C7
:100E6400B70708001377070219E3B7870700795516
:100E7400E378FBEA33079B00E3FFE7F855B58547C2
:100E8400E382F9F2DA852D45053B9389F4FFE38586
:100E940004E6293393F7390091EB83260480032772
:100EA400090093074900E39AE6E43E89CE84F1BF42
:100EB400B5476396F9001305900BC93135BDB147A9
:100EC4001305B00AE38BF9FE99476391F904B7055A
:100ED4000800B365BB002D45C53181448D4BA14944
:100EE400753963967401832704802320F9008504EF
:100EF400E39834FF8327048013172B0163550700FD
:100F04002312F900D5BB2322F900FDB39D47639951
:100F1400F90281451305B0044531BD44232009007D
:100F240023220900FD599D3993F77400CA9703C71A
:100F34000700FD14398D2380A700E39634FF6DBBB1
:100F4400A1476392F9046D398144630D0B008D4709
:100F54009304C0036308FB009304000563048B013E
:100F6400930440041375C507E30895D8194539312E
:100F740039390545213126850D3909453D31493138
:100F8400E31C05D669BB91476399F9001305600614
:100F9400F536F53E130590090DB7E38F09D4F154E6
:100FA400A9BBB7C7004003A7C72023A607200F107B
:100FB400000001C599C1814711E6B7C7004023A6C7
:100FC400E7208280B386F50003C80600B306F50067
:100FD400850723800601E317F6FEC5B737C700402F
:100FE4008327C720232607200F10000019C191C1B1
:100FF40011E637C700402326F7208280910503A716
:10100400C5FF11057D16232EE5FEDDB737C7004069
:101014008327C720232607200F10000001C53307AC
:10102400C50011E637C700402326F7208280050556
:10103400A30FB5FEE31DE5FEF5B7B7C7004083A6D1
:10104400C72023A607200F10000081473307F500AF
:101054000307070019E737C700402326D7203E853A
:1010640082808507E5B7011126CA4AC8B7C7004080
:1010740006CE22CC83A4C7202A892E8623A6072045
:101084000F100000131506019305F004418132C6C8
:10109400EF0090222A8401C53246CA851937228579
:1010A400F2406244B7C7004023A697204249D24485
:1010B40005618280B7C7004003A7C72023A6072085
:1010C4000F10000001C599C1814711EAB7C700405C
:1010D40023A6E720054582808507E309F6FE330849
:1010E400F500B386F5000348080083C60600E3054F
:1010F400D8FEB7C7004023A6E72001458280B7C7C2
:10110400004003A7C72023A607200F100000930761
:10111400F6FFBE952A966317C500B7C7004023A6FD
:10112400E7208280FD1583C715000505A30FF5FE92
:10113400DDB737C700408327C720232607200F10B9
:10114400000001C53307C50019E637C70040232650
:10115400F7200145828005058346F5FFE397B6FE37
:10116400E31BE5FE37C700402326F72005458280B0
:101174007971972700009387677B22D4804306D632
:1011840026D24AD04ECE52CC56CA5AC85EC679C070
:10119400B7C4C901014B972900009389A9789384A6
:1011A400F437172A0000130AAA78972A0000938AB2
:1011B4002A73172900001309297C8357240095E317
:1011C4005C44631D0B00172700002321F776832B53
:1011D400C4002285EF00301D5E84B9A82326FB00DD
:1011E400FDB783A7090082971C443307F540637653
:1011F400F500032749001D8F2A9763E2E408972727
:10120400000023A7076E835524000345040097209C
:1012140000E0E78000F15C405844A1CB0C44032675
:101224004900AE97BE8663E4B70063E4C700B386A3
:10123400C74014C4228B3A8449F09727000093874F
:10124400276A9C4B05476372F706FD1717270000B2
:101254002320F76AB250225492540259F249624A46
:10126400D24A424BB24B4561828063170B009727E9
:10127400000023ADE76AA1BF2326EB0089BF032743
:101284004A0209CF63EFA7003385A74083A70A0169
:101294006376F5009727000023ACA764228B4044B3
:1012A40061BF03274900BA97C5B79727000023A158
:1012B40007644DB7972700009387876B9C4385C3CA
:1012C400411106C682979727000083C7876589E77F
:1012D4009727000023AE0768B24041018280972718
:1012E400000083C7076491E79727000023A20768DB
:1012F40082808280411122C41724000013040461F7
:101304001C4006C626C24AC091C782979727000090
:1013140023AE075E5C4091C382971C40639C071C0C
:10132400172700000347377F9547972400009384CD
:10133400247E6301F71C9727000083C7A7648DE30D
:1013440083C75400858B89CF83C774001947631CF6
:10135400F70E97270000A38F077A99265C4482979B
:101364001C4491C38297172900001309E95B0327E2
:101374000900172600000346B6569727000083C7C6
:10138400275693961700BA9683D60600E9CA97277C
:10139400000083C7E75463EEC70C9727000023813E
:1013A40007541C406398071483C7740015476303EC
:1013B400F7149727000083C7377691CF83C774004B
:1013C40093F7F70F89EB97270000A387077497001B
:1013D40001E0E7806040972700009387A7549C436F
:1013E400638A07109727000093870759DC43172760
:1013F4000000232FF74EAD3B9727000093874753F8
:10140400DC53EDCB83C7740015476365F70E97274C
:10141400000083C7A774918BF1EF9727000083C75F
:101424004750E9EB032609009726000083C6564B74
:1014340063C8D70C2244B2409244024941011723A5
:1014440000E06700432483C774001D47E31AF7F0E4
:1014540097270000A380076CA1241C4809B78507BF
:1014640093F7F70F97260000238CF646E3E7C7F0BF
:1014740039BF86073E978355070023100700972737
:101484000000239F0748972700009387E7479C4362
:10149400172500000345C54413172500BA979C433C
:1014A40082979727000083D7A74717270000034791
:1014B400274393C7F7FF7D8D931717000327090070
:1014C4003E97835707005D8D2310A70097270000E0
:1014D40083C7074191C78507172700002302F740F8
:1014E400172700000347C73F9727000083C7573FCC
:1014F400E375F7EAB24022449244024941018280F2
:10150400139717003297035707006DF785070DB738
:1015140037C700408326C720B707FCFFFD17F58FA8
:101524002326F7200F100000972700009387473BDE
:10153400C84F832787262326D7206A0593C7F7FF3A
:1015440099835D8D82800111972700009387876CB2
:1015540022CC03A4870B26CA06CE2AC42EC68544F1
:1015640019E40145F2406244D24405618280834714
:10157400910003471400858B6304F7000044CDB742
:1015840019469305A100130524002D36E31895FE92
:101594000545C9BF172700001307C7561443411157
:1015A40022C49C5E4AC006C6998326C2858B3A84AF
:1015B400172900001309C954D1CB930700069CDEF8
:1015C40017270000034727559307000897240000B6
:1015D40093840454631BF700832709009C4393F707
:1015E4000704172700002308F75283C7040093F762
:1015F40007049DC3972700009387C7329C438297B3
:101604009727000023AEA75083C7040093F7F70B76
:1016140017270000230EF74E83C7440093F70704EF
:1016240095E7854717270000A306F74E9727000084
:101634009387C74F9C433707020098C7130700FCE2
:10164400972600002388E64CD844F8D318401C5F42
:101654009183858B8DC31C5F93E707011CDF97275C
:1016640000009387A74C9C4323A2070685471727AE
:1016740000002301F74A83270900D8430583058B1B
:1016840019C7D843759BD8C3D843799BD8C3B240F4
:1016940022449244024941018280ED3D730020308E
:1016A40097270000938787489443972700009387E0
:1016B400274603C70700058B11CB97270000238B10
:1016C400074497270000A3870744828003C71700B5
:1016D400058B65F7F85271FF83C75700DDB71727ED
:1016E40000001307274203280700832788039583F4
:1016F400858BADEF11C683270803BD832300F60055
:101704009DC61C43985B46079357670163560700C1
:1017140093E707C0C207C18303970600C207C187C6
:1017240009C7BA970947B3C7E7022390F6008DCDDE
:101734008345150095C99727000083C7C73D93F7D4
:10174400070413879500894585C33A9583470500A7
:101754000547994593F6F7066398E600E207E187A3
:10176400814563D30700B9452E8582808545EDBF49
:10177400411122C406C6172400001304243B184058
:1017840049E9AE877453FDFE3E85B2859727000074
:1017940023810738970001E0E780E0EA97270000FB
:1017A400938747369C43B70680009843558F98C368
:1017B400D857719BD8D797270000A38D0734972754
:1017C4000000A38707341C40094798C3B7F700E01B
:1017D40003A707D16D9B23A8E7D003A707D15D9B7F
:1017E40023A8E7D0730050101440172700001307F4
:1017F400273283472700858B89EB83473700858B06
:10180400C1C39727000023870730B2402244410117
:1018140082808D476310F502972700009387872EF7
:101824009C43B70680009843558F98C3D857719B43
:10183400D8D75DBF8547E319F5FA54478177FD177B
:10184400F58F5CC70F1000001840B70702001CC7D3
:10185400930700F817260000230EF62A97270000A6
:101864009387472A9C439C439D83858B6397A7005A
:10187400930760197CD354C785BF9307E01BDDBF72
:10188400FC52A5FB59B7411122C4172400001304CC
:10189400E4291C4006C6D8479316D70063D606022F
:1018A40098479316D70063D106027D57B8D71727F8
:1018B40000001307E702584F05079726000023AFDF
:1018C400E6023707040098C798470D83058B1DC3AC
:1018D400172700000347E723136717009726000024
:1018E4002389E622130700F8972600002384E622C2
:1018F400214798C79847058B09CF1727000003474E
:1019040037211367170097260000A383E6200547B5
:1019140098C798470983058B09E798470583058B82
:1019240031C317270000A307071E98479726000016
:101934009386061E0983058B6302071003C70600FE
:1019440013671700972600002384E61C114798C7E5
:10195400172700001307071B1443D856719B1367FE
:101964001700D8D698479316F70063D60602972631
:10197400000083C66631C18A172700001307872930
:10198400E1CA034747071367070297260000238D20
:10199400E62E416798C798479316E70063D206027C
:1019A400172700000347071762076187635707007B
:1019B400054797260000238FE6143707020098C7CF
:1019C40098479316C70063D706029726000083C67C
:1019D400B62B858A172700001307C723C1CA0347FC
:1019E40057071367270097260000A38FE6283707B9
:1019F400080098C798479316B70063DD06023707B7
:101A0400100098C79727000083C7C7F785C7172713
:101A14000000034757109547630EF700972700000F
:101A24009387870D9C4391C382971840B7071F0083
:101A3400BD075CC7B24022444101828003C736001F
:101A44001367170097260000A385E60C094701B722
:101A5400834647070946BD8A6388C600034747078C
:101A64008D463D8BE317D7F2114705B783465707D9
:101A7400918AB5DE0347570713678700ADB79727E9
:101A840000009387A70A98438967938707F47CD358
:101A9400972700009387C70E9C4383A607091396D4
:101AA40056006358060083A607091396660063442C
:101AB40006007453FDF28280411122C4B7C700406E
:101AC40006C603A4C72023A607200F10000011C1D7
:101AD40099E5B7C7004023A6872001457DA8930751
:101AE4003500C207C183F19BC207C18313074003BA
:101AF4006369F702172700001307471108431727E4
:101B040000001307271014436392A602172700004E
:101B1400130707E2185B55DFC207DD8D0545029701
:101B24004DBF172700001307270EC9BF03576500D1
:101B34002DEB035745006366F706B306F7402146CD
:101B4400637CD60203280500938687001D8FAA961E
:101B5400611717260000035606D92392E60023A036
:101B640006012393060014C12312F500130786FF10
:101B7400972600002399E6D62313B5009725000085
:101B840083D565D6B387F54017270000231DF7D406
:101B9400B7C7004023A687202105B2402244410153
:101BA4008280084195B7B7C7004003A8C72023A681
:101BB40007200F10000001E523A607218280972744
:101BC40000009387A70403AE0700972700009387BC
:101BD400670303A307008146F28763F0670C83A8B9
:101BE4000700636FF50A63EDA80A1387870063662D
:101BF400E50A03D66700216705076317E60003C7F4
:101C0400C18C05072386E18C97250000938545CD7B
:101C140003D6470003D76500239307003297420792
:101C24004183172500002310E5CC638AC7031725D9
:101C34000000130565FD08416303F50203D5660042
:101C440019ED83D7460023A0160121073E962106ED
:101C54002392C600972700002397E7C8B6879843C6
:101C6400630D670297260000938606FA9442630682
:101C7400D7028356670095E283D647000356470090
:101C84001843A106B2962392D70098C383D7650060
:101C9400A107172700002318F7C4B7C7004029BFBE
:101CA400BE86C6871DBF011197270000938787F65C
:101CB40022CC03A4070C26CA4AC84EC606CEAA8460
:101CC40013092500854915C083C714000347340050
:101CD400858B6304F700405CFDB719469305440007
:101CE4004A85EFF02FBDE31835FF2285F2406244A8
:101CF400D2444249B24905618280411197270000CC
:101D0400938747F122C403A4070C26C24AC006C61F
:101D140093042500054901E82285B24022449244F7
:101D2400024941018280A6851305A40297B001E00F
:101D3400E780C0AAE30225FF405CF1BF4111972769
:101D44000000938727ED22C403A4070C26C24AC0CF
:101D540006C693042500054901E82285B2402244C1
:101D64009244024941018280A6851305A40197B0DB
:101D740001E0E780A0A6E30225FF405CF1BF00007C
:101D8400197106C212C416C61AC81ECA22CC26CE9F
:101D94002AD02ED232D436D63AD83EDA42DC46DEC7
:101DA400CAC0CEC2D2C4D6C6DAC8DECAE2CCE6CE37
:101DB400EAD0EED2F2D4F6D6FAD8FEDA938581834D
:101DC4008841E700050092402242B2424243D24396
:101DD4006244F244025592552256B2564257D257A3
:101DE4006258F25806499649264AB64A464BD64B9B
:101DF400664CF64C065D965D265EB65E465FD65F23
:101E04000961730020300000EFF0CFCA73000000B6
:101E140000000000972200009382A2B00383020016
:101E240023800200630F0300F32510342EC09705AE
:101E340000009385A5FD73901534EFF0DFA47300C3
:101E4400203086DCEFF03FA4E650828000000000E2
:101E5400971100209381C190175100201301419ADA
:101E64001305400097E5FF1F938585191706002089
:101E7400130606FE63FAC5008322050023A055005D
:101E840011059105E3EAC5FE17C501001305C580D8
:101E9400970500209385C5FB1386818363FAC500EB
:101EA4008322050023A0550011059105E3EAC5FE30
:101EB4001385818397250020938505E86377B50012
:101EC400232005001105E36DB5FEFD42739002BCAD
:101ED4008D4273904280930280087390023097E29F
:101EE400FF1F9382E21193E23200739052309712F3
:101EF40000009382A2CF7390123473002030B7177E
:101F0400004083C5870503C8970503C7970593F564
:101F1400F50F1378F80F13678700A38CE70403C742
:101F240097051377B70FA38CE70403C7A7051367B7
:101F34001700238DE704371700408347A705858BD7
:101F4400EDFF0565C146371700409308F5FF0346CA
:101F5400A70513661600230DC7040346A705058AC3
:101F64006DFE0356C705FD16C2061346F6FF33760B
:101F74001601C182B297E1FEA10791831305058082
:101F84001D8DA30C07054205230CB70441858280EF
:101F9400B717004003C777051377E70FA38BE70450
:101FA4003947238CE7040D47A38CE70403C7A7052F
:101FB4001377D70F238DE7048280371700408347B8
:101FC400A70593E71700230DF7048347A705858B1F
:101FD400EDFF0355C705520551818280B7170040B4
:101FE40003C7E7040D8941111377C70F498F93067F
:101FF4008008F3B6068093F6860836C60100010011
:10200400930670052380D704930680FA2380D704AF
:10201400010001002387E70423800704B247F3A7E4
:102024000780010001004101828041112A83014897
:10203400930E407E130F0019930F4006931803016B
:1020440093D8080163EF1E0113030019337365026B
:102054008542FD4363F0B20A8D4F214F930E400633
:1020640089A87D13336EE3039308E016630E0E0014
:10207400336EF3039308D01663080E00937833008D
:1020840093B818009388D816C29813980801135867
:1020940008016DB793F81500138EF5FF6371BF0443
:1020A400F908C2981398080193150E0113580801F2
:1020B400C181E391F5FF8545630B0300B378D50334
:1020C4008145638608009375350093B51500F105C5
:1020D400C29513980501135808018945D9BFB388DF
:1020E4001341C2981398080193150E01135808015F
:1020F400C1818DB77D16329879463307C70213D64E
:102104001700BE0742081358080132976146B3F618
:10211400C60213068070B386C6023697A166F58F91
:102124004207D98FB716004003C7F6021377070892
:10213400A303E1000346710003C7F60213770708FF
:10214400E314E6FE03477100B71600405DCF1307A2
:10215400800873370780137787083AC401000100A9
:1021640037170040930670052300D704930680FABE
:102174002300D70401000100232A07038346170321
:1021840093E60608A308D70223000704224773270F
:102194000780010001001166371700407D16545B6B
:1021A4004C5FAD8EF18EE5FE93068008F3B6068093
:1021B40093F6860836C601000100930670052300D5
:1021C400D704930680FA2300D704010001005CDBE6
:1021D4008347170393E70704A308F70223000704C0
:1021E400B247F3A70780010001004101828003C7C1
:1021F400F60213770708A303E1000346710003C73F
:10220400F60213770708E314E6FE0347710065D36B
:102214003DBF4111B7170040985F3AC6945F3247FB
:10222400E39CE6FE324541018280914763EAB708A8
:1022340097B70100938787E28A05BE9598413E9738
:10224400B71700409387470B028794431345F5FF64
:1022540037170040E98E94C39306070B9C42E98F1D
:102264009CC29307070A9843798D88C38280904360
:102274009346F5FF37170040758E90C31306070B7E
:102284001C42C98F1CC29307070A9843F98E94C352
:102294008280944337170040C98E94C39306070B7A
:1022A4009C421345F5FF65BF94431347F5FF758FB3
:1022B40098C3B71700409387070A9843498F98C378
:1022C40082809843498FEDB7914763EAB70897B77F
:1022D40001009387E7D98A05BE9598413E97B717C1
:1022E40000409387470D028794431345F5FF371742
:1022F4000040E98E94C39306070D9C42E98F9CC26B
:102304009307070C9843798D88C382809043934642
:10231400F5FF37170040758E90C31306070D1C4256
:10232400C98F1CC29307070C9843F98E94C382800B
:10233400944337170040C98E94C39306070D9C42FB
:102344001345F5FF65BF94431347F5FF758F98C395
:10235400B71700409387070C9843498F98C382802E
:102364009843498FEDB73717004083572709134522
:10237400F5FFE98F2319F70882809357E50093F757
:102384000730C98FC2070947C183638BE5046362C1
:10239400B70213C6F7FF9DE9371700408356670954
:1023A400F18E231BD7081307C70C1443C98E14C31B
:1023B40021A00D47638CE50237170040231FF7085F
:1023C40083562709D58F2319F708828037170040D1
:1023D40083566709F18E231BD7081307870CF1B7BF
:1023E4003717004083566709DD8E65BF37170040F5
:1023F40083566709DD8EC5B7797122D4371400403E
:1024040026D24AD0035924028354040206D6420930
:10241400C2044ECE52CC56CA13590901C1802DE1D3
:102424001379F9F793F4F49F4209C204135909018B
:10243400C18093078008F3B7078093F787083EC4E9
:1024440001000100930770052300F404930780FA48
:102454002300F40401000100231124032310940237
:1024640023000404A247F3A7078001000100B2502F
:10247400225492540259F249624AD24A45618280F6
:10248400B7F5070081463000B105194597E0FF1FF5
:10249400E780807A22478967F98FF1FB136909087D
:1024A40093E4044093098008F3B7098093F78708FD
:1024B4003EC001000100930A700523005405130A6D
:1024C40080FA230044050100010023112403231092
:1024D4009402230004048247F3A70780010001004B
:1024E400294597E0FF1FE7806030F3B9098093F92D
:1024F40089084EC20100010023005405230044054D
:10250400010001008357040293E707202310F4021B
:1025140023000404924781BF411131E593078008E9
:10252400F3B7078093F787083EC001000100B7178F
:102534000040130770052380E704130780FA238003
:10254400E7040100010003C7E70093C5F5FF6D8FA1
:102554002387E700238007048247F3A7078001004D
:1025640001004101828013078008F337078093F745
:1025740087083EC201000100B71700401308700528
:1025840023800705130580FA2380A70401000100B6
:1025940083C6E700CD8E93E606042387D700238005
:1025A40007049246F3A6068001000100F336078073
:1025B40093F6860836C401000100238007052380B2
:1025C400A7040100010083C6F70093F6C60FA38792
:1025D400D70023800704A246F3A606800100010069
:1025E40073370780137787083AC6010001002380F8
:1025F40007052380A7040100010003C7F7007D1627
:102604003336C000518FA387E70023800704B24705
:10261400A9B737E700E01C435443A183E206D58FF2
:102624001CC1FD572320F7182322F71882801317A3
:102634008500B7E700E023A0E710618123A2A7107B
:102644008280B7F700E08847CC4782804111939796
:10265400050122C406C626C2C1872E8463DD070095
:10266400EF00A06E11C13D252165218DB2402244A9
:1026740092444101828093F7150013C51500FDF7BC
:10268400916433F595007DD113060064916503C50B
:10269400C183EF00703F258C131504014181F9B704
:1026A4001D71494697B501009385C59D17B5010075
:1026B400130545BC86CEA2CC97F0FF1FE780809F10
:1026C40011E101A037F700E0795610CBFD5654CB49
:1026D400B7E700E0056423A087109306F00214C353
:1026E40023A087180100010017F7FF1F1307877243
:1026F40023ACE1824157A38AE7401306C003814516
:10270400480897F0FF1FE7806090970700209387A1
:10271400E7973ECA896793870780231CF100ED473A
:102724002312F1029547A301F10285472303F10225
:10273400930754D12314F102B7F50700970700005B
:10274400938767F03EDA8146970700009387271640
:102754007000E10519453EDC97E0FF1FE780C04D9E
:10276400B2473ED6835701012318F102D24789C7E5
:102774008357810163F3870001A04808EF10A01E6E
:1027840011C101A0F64066442561828041111705FC
:1027940000001305E5EB06C6EF102019238EA18275
:1027A400B120B240410161A2411193078008F3B7FF
:1027B400078093F787083EC601000100B717004061
:1027C400130770052380E704130780FA2380E704C6
:1027D40001000100C8DB23800704B247F3A7078088
:1027E4000100010023A0018441018280797106D691
:1027F40013078008F337078093F787083EC4010066
:102804000100B7170040930570052380B704130631
:1028140080FA2380C7040100010083C6F70293F6FF
:10282400D60FA387D70223800704A246F3A6068007
:102834000100010073370780137787083AC6010047
:1028440001002380B7042380C7040100010003C7EB
:10285400F70213675700A387E70223800704B247F0
:10286400F3A707800100010081470147814605461F
:1028740085451305407EEFF04FFB0808414681452E
:1028840097E0FF1FE7808078B707C0A83ECAB787E4
:1028940032003ECC080897E7FF1F938787FD3EC8A8
:1028A400EF10003AB25045618280011122CC06CE6D
:1028B400930740031304C5FC63E7A7003704C0A8CB
:1028C4001304C4FC2A946800A933A132B307A440BA
:1028D4006376A400B707C0A8A297898F3747F6A6E6
:1028E4009387F7FD1307F7C5637AF7003245094468
:1028F4003D3BF240228562440561828022856D352C
:102904003245353303A401840DE01165690597E070
:10291400FF1FE780208E0545EFF04FECDD382AC419
:10292400CD38A247E30EF5FEE9B70D44D9B74111FE
:1029340013078008F337078093F787083EC4010024
:102944000100B7170040930570052380B7041306F0
:1029540080FA2380C7040100010083C6E70093E6E0
:1029640086002387D70023800704A246F3A60680A7
:102974000100010073370780137787083AC6010006
:1029840001002380B7042380C7040100010003C7AA
:10299400170313670702A388E70223800704B247DB
:1029A400F3A7078001000100B7E700E03707001034
:1029B40023A0E710410182808280011117050000E5
:1029C4001305250A06CE22CCEF00307613845184F9
:1029D40085472300A400A306F1001306F1008D47E8
:1029E40085451305C0302307F100A3070100EF401C
:1029F40091701306D100854513055030EF40B16F37
:102A04001306E100854513058030EF40D16E17F6BB
:102A1400FF1F1306E6439305300213056030EF40B1
:102A2400916D930500320D45EF20303C9305003243
:102A34001145EF20903B97E0FF1FE78020F403450A
:102A440004008545D92D034504006244F24005661F
:102A5400130606C89305000805616F00F002011112
:102A64009397050122CC06CE26CAC1872E8463DE45
:102A7400070003C55184D12C11C1292C2165218D56
:102A8400F2406244D2440561828093F7150091CBF1
:102A940017F5FF1F1305C54CEF30811813451400BB
:102AA400C5B793F70508B1C39387818003C70700AF
:102AB40011EF054741469305002003C55184238047
:102AC400E700EF00607C134504085DBF97E0FF1F3B
:102AD400E780C0EA97F6FF1F938686371306300215
:102AE40085450145EF40500DF9BF93F7051085CB9F
:102AF4001306F100854513055030A3070100EF408C
:102B0400915F5D66130606709305000803C5518442
:102B1400EF008077134504102384018095B793F761
:102B24000520A1C39384518403C5040011661306D0
:102B340006E893050010EF00207585471306F100A1
:102B4400854513055030A307F100EF40D15A03C562
:102B54000400414693050008EF0000731345042068
:102B640005B793F7850091CF056593869184214637
:102B74009385D18497E0FF1FE78020E51345840007
:102B840001B793F7050191CF096593868184414686
:102B94009385C18497E0FF1FE78020E31345040178
:102BA400C5B593F7050299CF116593867184130611
:102BB40000029385B18497E0FF1FE78000E113458D
:102BC40004027DBD13F50504E30C05EA2165938633
:102BD4006184130600049385A18497E0FF1FE780B6
:102BE400C0DE1345040469BD4111054506C6EFF076
:102BF400BF801305800497E0FF1FE7808097854519
:102C04007D55EFF08FE285457D55EFF0EFEB85457F
:102C14000565EFF06FEB89450565EFF00FF6854527
:102C24000965EFF06FEA89450965EFF00FF5854511
:102C34001165EFF06FE989451165EFF00FF48545F3
:102C44002165EFF06FE889452165EFF00FF3B7E7F1
:102C540000E03707040023A0E7104146C1450545BD
:102C6400EFF09F8B353C1D36EF40D17AB93397E0B6
:102C7400FF1FE78020DE23AC05FE1C4191E7010025
:102C840001000CC18280BA8703A787FF6DFF23ACC4
:102C9400B7FE8280411122C426C237C4004006C652
:102CA4008324C420232604200F10000009E92326CE
:102CB40094201545B2402244924441018280034746
:102CC400E5FF9307F00F6306F700232694201145D0
:102CD400D5B797F0FF1FE78000ED01452326942028
:102CE400D1BF411126C24AC0B7C4004006C622C49F
:102CF40003A9C42023A604200F10000009E923A679
:102D04002421B240224492440249410182809565C3
:102D1400938505D0C98D2A842105C2054205C18148
:102D2400418197F0FF1FE78020D901CDFD57232073
:102D34000500231285002303F50023A62421210581
:102D4400C9B723A6242101456DBF411126C2B7C7C7
:102D5400004006C622C483A4C72023A607200F1060
:102D6400000097170020938727B790430144014739
:102D7400B28791E711E8A165EF00007A35A083C618
:102D8400E7FF639DA60221C0832684FF631FC4025C
:102D9400171700202322D7B47D57232C04FE230FBA
:102DA400E4FEF1DBA165952E2285B2402244B7C72B
:102DB400004023A6972092444101828011E03E877F
:102DC40083A787FF7DB73E84E5BF232CD7FEE9B7F1
:102DD400411126C24AC0B7C4004006C622C403A992
:102DE400C42023A604200F10000089E523A6242173
:102DF400154515A02A849717002083C737AE2E8562
:102E04006375F400894763EE87006935B7C70040EE
:102E140023A627210D45B240224492440249410190
:102E2400828083A785FF99E703C7E5FF9307F00F27
:102E34006308F7008535B7C7004023A627214DBF97
:102E4400238F85FE17150020130505A92D35A165CF
:102E54002285E124014523A6242175BF971700206C
:102E640023AC07A68280971700209387E7AB9C4387
:102E740099E33E85828003D727006316B70003C712
:102E84000700E308A7FEDC47E5B7C9C1797122D47E
:102E940006D626D24AD04ECE01444147B3D7854008
:102EA400858BA5C31205314722953305E502971793
:102EB4000020938767AB03A907008544B39484007B
:102EC400C204C180BE892A990327090011C70325BA
:102ED40049002EC60297B24531473304E40283A762
:102EE40009003E941C4489E7232009002322090099
:102EF400B2502254A58D02599254F2492E8545614F
:102F040082800504E31CE4F88144DDB72E858280C9
:102F140041111397050122C406C626C24AC041873F
:102F24002E84635E0700153511C1AD33A1673D8C56
:102F34002285B24022449244024941018280EDD963
:102F4400AA8701474146B356E440858A8DCE92074D
:102F5400BA97B146B387D702971600209386C6A0C6
:102F640003A906008544B394E400C204C1803E99D9
:102F7400832709000325490082972320090023227F
:102F84000900258C75B70507E31FC7FA8144D5BF2F
:102F9400411126C2B7C7004006C622C483A4C72075
:102FA40023A607200F100000971700209387079887
:102FB4009C531384C18099C782971C403E9523A6D5
:102FC400A18039A097170020938787959C43EDF73C
:102FD4001C40374703001307D73FB387E70237A7DF
:102FE4002600130737ECB240BA9723A6F180B7C77F
:102FF400004023A697200840224492444101828045
:10300400797126D2B7C7004006D622D44AD04ECE14
:1030140052CC56CA5AC85EC662C483A4C72023A62B
:1030240007200F10000005E123A697200945B250A0
:10303400225492540259F249624AD24A424BB24B48
:10304400224C45618280971700209387678D9C43AB
:10305400BA8A368AB28B2E8BAA8982979717002058
:103064009387879098433E890144B146C147330C06
:10307400D40233068701104241EAC165938505F005
:10308400414597F0FF1FE78020A305E19717002033
:103094009387C7899C5B81C7814511458297B7C7D0
:1030A400004023A697202D4559B7971700209387F2
:1030B400A787984331E79717002023A7A786230003
:1030C40005008327090005473317870023260500D9
:1030D400232475012311E50023225501E29723A03F
:1030E400370123A2670123A4570163040A002300C4
:1030F4008A00B7C7004023A6972001450DBF3E872D
:103104005C47F5FF48C765BF0504E312F4F6B7C78B
:10311400004023A69720214519BFB7C7004083A6C6
:10312400C72023A607200F1000001707002003471D
:10313400F77A6373E502170600201306A67E1317B9
:10314400150008423A9503570500D98D2310B500A0
:1031540023A6D7200145828023A6D7200D4582804F
:10316400B7C7004083A6C72023A607200F1000007E
:1031740017070020034797766375E50217060020BA
:103184001306467A13171500084293C5F5FF3A95BE
:1031940003570500F98D2310B50023A6D720014558
:1031A400828023A6D7200D458280011126CA37C705
:1031B400004006CE22CC4AC84EC652C48324C7203F
:1031C400232607200F100000130705FF1377F70FBE
:1031D400FD4763E5E70AB146B306D5029707002029
:1031E40093878778984336971C43C9CB135A450075
:1031F40005443D893315A4001314050141802E892B
:103204005285A2858D31AA8929CDA2855285893F0F
:10321400970700209387C7709C43829797070020E5
:1032240083D7C775338727032A848146130600642E
:10323400B3B7270313050732B335E500BE95EF9006
:103244009126B3078500970600209386A6723E87D1
:10325400D44263E4A70063E4D7003387D74023A4B0
:10326400E900B7C7004023A697200145F240624415
:10327400D2444249B249224A05618280B7C700401C
:1032840023A697200945DDB7797126D24ECEB7C45F
:10329400004006D622D44AD052CC56CA5AC85EC67A
:1032A40083A9C42023A604200F1000009707002040
:1032B40083C7D762637AF500970700209387476630
:1032C40083AB070063970B00B7C7004023A63721E1
:1032D400A9A0170B0020130BEB69832A4B00B747F7
:1032E40036FE938707C82E8A9705002083D5056983
:1032F400BE9AB387C5022A8432898146B3B5C50212
:1033040013850732B337F50013060064BE95EF90BA
:10331400911963F0AA0223A634210145B250225424
:1033240092540259F249624AD24A424BB24B456125
:103334008280829B9705002083D54564B38725034B
:10334400AA84130600648146B3B5250313850732A6
:10335400B337F500BE95EF901115B3079500BE8401
:1033640003274B0063E4A70063E4E700B384E7406A
:10337400D2852285CD3C01C904C5B7C7004023A628
:103384003721054561BF936504F0C205C1814145FC
:1033940097E0FF1FE780407219E9970700209387A1
:1033A400E7589C5B95D3A2851145829731BF970757
:1033B4000020938767579C439DE39707002023A52C
:1033C400A75685472326050004C52311450123007C
:1033D4008500A300F5002322050045B7BA87D84726
:1033E40075FFC8C7F9BF79714ECEB7C7004006D67E
:1033F40022D426D24AD052CC56CA5AC85EC662C417
:1034040066C26AC083A9C72023A607200F10000044
:1034140035C141443689B28A2E8AAA84B14C170B2D
:103424000020130B6B54054D130C0003B30B9403D2
:1034340003270B005E971C43B9EF9375F400B31593
:10344400BD0013554440C2055686C1811375F50F5E
:10345400253D31C183270B00DE9784C323A2470196
:103464006304090023008900B7C7004023A637215D
:10347400014521A023A637210945B2502254925474
:103484000259F249624AD24A424BB24B224C924C04
:10349400024D456182800504E31A84F9B7C70040F0
:1034A40023A637212145D1BF011122CC26CA4AC8FF
:1034B4004EC6B7C7004006CE03A9C7202A84AE89EA
:1034C400B28423A607200F1000007D3B2285CE8501
:1034D400593A2A8405C59705002083D5254AB38720
:1034E4009502130600648146B3B59502138507322D
:1034F400B337F500BE95EF90017B48C01335140037
:10350400F2406244B7C7004023A62721D24442496F
:10351400B2490E0505618280011122CC4AC84EC60B
:10352400B7C7004006CE26CA83A9C7202A892E849D
:1035340023A607200F100000EFF0FF92AA8419C100
:1035440023110500A2854A8521399707002083C7E6
:10355400E738639B27019707002083D7273C5D8CBE
:1035640097070020239C873AB7C7004023A637213A
:10357400014591E01945F2406244D2444249B249BE
:1035840005618280011126CA4AC8B7C4004006CE2C
:1035940022CC4EC603A9C42023A604200F10000089
:1035A4009307F00263E8A704B1473304F5029709CF
:1035B40000209389693B83A70900A2979C439DCB74
:1035C4009377F5008545B395F500C205C181118156
:1035D400A13783A709000145A29723A0070023A2CE
:1035E400070023A62421F2406244D2444249B2494E
:1035F40005618280B7C7004023A627210945E5B7A6
:10360400411126C206C622C4B7C7004083A4C720FE
:1036140023A607200F100000EFF0FF8419E90145ED
:10362400B2402244B7C7004023A6972092444101E8
:103634008280970700209387A72E9C43004582979A
:1036440097070020938707336368A402D843B746DB
:1036540036FE938606C83305A4403697E371E5FC2D
:1036640013070064B335E50203D6870081463305AA
:10367400E502EF9041636DB7D8433A94C1BF01119D
:10368400680006CE22CC26CAEFC07008FD57630B33
:10369400F50AB247DDC3970700209387A72D970447
:1036A40000209384A4239448D8433E846387E6028D
:1036B400970700209387C7269C438297B247984870
:1036C40063F3E7003E87B307A7003E85544063E4F5
:1036D400E70063E4D7003385D740170400201304C0
:1036E400E4421C4C81CF97070020938727499443D9
:1036F4003707CDFF7D179C46F98F9CC611E59707C8
:10370400002093872727C843970700209387072221
:10371400DC53829719E51C4C8DC3EFE0D004EFD045
:10372400F0591C4C99CB9707002093872745984361
:10373400B70633001C47D58F1CC7F2406244D244FD
:1037440005618280970400209384441917040020A3
:103754001304442294485840970700209387471C39
:103764009C436393E60282975440B74736FE93879F
:1037740007C8B6973387A7003A856364F700E36EFA
:10378400D7F43305D74091BF829794485840B38704
:10379400A6003E8563E4D700E3E1E7F43385E74020
:1037A4002DBF411106C69707002023A3A71C02952D
:1037B400B2409707002023AFA71201454101828040
:1037C400914763E9B7008A05970700209387C713D9
:1037D400BE9588C182809707002023A9A71811C528
:1037E400854717070020230CF712828041115146A8
:1037F4008145170500201305251106C697070020EB
:1038040023A407129707002023A407169707002074
:1038140023A8071097070020238307109707002089
:1038240023A6071497D0FF1FE780407E130680026B
:103834008145170500201305650A97D0FF1FE7800F
:10384400E07CEF40E1469707002083C7770F13D54C
:1038540027008D8B3E958D473305F5028545390547
:103864001375F50F97070020238BA7069947330597
:10387400F5021305052497E0FF1FE780E0231707EF
:1038840000202323A70E59CD99471706002003468D
:1038940006053306F60281451306062497D0FF1F5A
:1038A400E780C076970700209387070C9C43938793
:1038B4000724170700202327F704170700200347CE
:1038C40007020A07BA9717070020232DF704EFF021
:1038D400EFD8A929970700209387C7029443970735
:1038E400002083C7B7FF13972700369717F6FFFF0B
:1038F4001306E65910C3138717001377F70F0A0747
:10390400369717F6FFFF1306E66010C313873700D8
:10391400890793F7F70F8A0797050020A380E5FC32
:10392400B69790C3B240410182809707002083C7B5
:10393400F7FA17070020034787FA63F3E70217072C
:103944000020130727FC184393861700170600204E
:10395400A306D6F893962700369708C33E8582803F
:103964009307F00FE5BF1C416382071441777D8FF5
:10397400B70600208947631CD71203574500630824
:103984000712411122C419462A849305F00F6105D8
:1039940006C697D0FF1FE780C07905478D476302AD
:1039A400E5101C4491C75858994765CF185C75CBEE
:1039B4001306C003814517050020130525F797D08A
:1039C400FF1FE780A0641306C003A285170500202B
:1039D4001305C5F597D0FF1FE780A05C17070020EB
:1039E400035787F597070020938747F419E71307D0
:1039F4000010970600202391E6F4170700200347E0
:103A0400C7F311E70547970600202388E6F2170756
:103A140000200357A7F211E76D4797060020239F64
:103A2400E6F017070020034757F111E715479706FB
:103A34000020A384E6F017070020034747F011E7AE
:103A4400054797060020238CE6EE1707002003475E
:103A540017EF19E703C7F70097060020A381E6EEE6
:103A6400170700200347C7ED11E7554797060020C5
:103A74002388E6EC0347640119E71307C00397069C
:103A840000202380E6EC9C5791C78297970700207B
:103A9400239AA7E4FD5717070020A303F714B933AB
:103AA4008147B24022443E854101828089473E8558
:103AB400828001114EC6970900209389A9EB83A740
:103AC400090006CE22CC26CA4AC852C482971309DA
:103AD4000064B335250303DA890081465286330531
:103AE4002503EF90411C97070020938727DF804F21
:103AF400AA8401456306940233858440636E94006E
:103B040003A5490052868146B335A9023305A902AB
:103B1400EF906119018D26959707002023AC97DC5F
:103B2400F2406244D2444249B249224A0561828049
:103B34009707002083D7A7E451471D45637CF7020C
:103B4400794719456378F702130720031545637312
:103B5400F7021307B0041145637EF700130740060C
:103B64000D456379F7001307600909456374F7008D
:103B740013B5B70F8280011122CC06CE2A842EC63B
:103B8400EFF00FC1B245F240818D33A5A502229515
:103B940062441375F50F05618280011122CC06CEB3
:103BA4002A842EC6EFF0CFBEB245F240818D33A5F4
:103BB400A50222956244420541810561828001117A
:103BC40022CC06CE2A842EC6EFF08FBCB245F2403A
:103BD400818D33B5A50222956244056182809707E1
:103BE40000209387A7D4985739CB411122C426C209
:103BF40006C6BE840297170700200357A7CE2A845F
:103C040015CBBA876373A700AA87C207C183BA8694
:103C14006373E400A286C206C182958F5147635B39
:103C2400F700DC5491C38297EFE0E01C9707002073
:103C3400239A87CAB24022449244410182808280FE
:103C44009707002083C7C7D399C7054582800545D8
:103C5400F2400561828097070020938727CDDC57C7
:103C6400011106CEAA8581C72AC68297B245ADCD79
:103C74009C41F1DFDC41E1DF83D78500E9DB83D7B9
:103C8400A500F1D74146170500201305A5CE97D00E
:103C9400FF1FE7800031970700209387A7CD9C433F
:103CA40017070020232EF7C69707002083C777C97C
:103CB4008DE79307805717050020035525CC33055E
:103CC400F50237460F001306062481468145EF802E
:103CD400917D97070020A386A7C61705000013054A
:103CE40085DDC1340145ADB79707002023A607C081
:103CF40097E7FF1F9387C78117070020232CF7C678
:103D04007D579707002023A9E7C6B787320093871A
:103D140027A19706002023A3F6C697070020238136
:103D240007C6B7C7004023A4E726B5B7011122CCC4
:103D340017040020130484BF084406CE26CA4AC8C8
:103D440001E90545F2406244D2444249056182805A
:103D54005C58E5DB185C75D770008545829718447C
:103D6400B247E300F7FE9305E0041705002003556E
:103D7400A5BC97E0FF1FE78020D417070020232F5E
:103D8400A7B661D117060020035606BB9305F00FB2
:103D940097D0FF1FE780802781441709002013096B
:103DA400E9B39707002083C747B90326090263C113
:103DB400F402328597E0FF1FE780E0DE01459707B4
:103DC400002023AD07B29707002023AB07B29DBFA5
:103DD4009705002083D545B6B38795020844185C3F
:103DE400898185043E9508C2029765BF011156C2B8
:103DF400970A0020938A8AB383A78A0022CC4AC8F0
:103E04004EC606CE26CA52C45AC0AA892E84328906
:103E14006386072203A74A03630907141307F01FE5
:103E24006367A71497040020938444AB03AA040295
:103E340063170A0A9565938515E017050020035555
:103E4400A5AF97E0FF1FE78020C79707002023A7AF
:103E5400A7AA2A86630B051083A74A0303A58A0031
:103E64009705002083D545AD8981829783A78A0071
:103E740003AA0402170700202324F7A88947639C98
:103E8400F908C1476313F40E9705002083D5C5AA2A
:103E9400938505FC9147B3C5F5028A05D29503C7FE
:103EA40025009307A005631EF70A83D70500639ACC
:103EB400370B4A852286910597D0FF1FE780600E55
:103EC4009C505285639347150145F2406244D244A5
:103ED4004249B249224A924A024B05618280D85033
:103EE400E38EE7F89565938525E0170500200355D3
:103EF400A5A497E0FF1FE78020BC2A8A3DC52A8637
:103F040083A74A0303A58A009705002083D5C5A289
:103F140089818297A5B78D47639DF900C1476316D0
:103F2400F4049705002083D525A1938545FDF199D7
:103F3400B5B79147639AF9006319340397050020D4
:103F440083D5859FA115E5B793070010639FF900FA
:103F5400A14763EC87009705002083D5E59DC11533
:103F6400F9B79C5052856396470D2945B9BF1D6A20
:103F7400568B6371450B130A05E01947334AEA026D
:103F8400170700200357479B970A0020938A0A9536
:103F9400330AEA023E9A83A74A026395470183A43F
:103FA4000A029DE49305E004170500200355C59813
:103FB40097E0FF1FE78040B0AA8445D983274B03CD
:103FC4009705002083D545972A8689815285829753
:103FD40091451307A005898193972500A69783C669
:103FE40027006393E60483D60700639C36038505A4
:103FF4008A052286A6954A8597D0FF1FE78060FA36
:1040040083A70A02E38297EC268597E0FF1FE780E7
:1040140080B95DBD21677917E369A7F4330A454187
:1040240085B783C5370045BF83A70A02E38F97F29C
:10403400268597E0FF1FE78000B705BF970700209C
:104044009387C7898C5395D191479306A00589839B
:10405400139727002E9703462700E318D6F003563C
:104064000700631C360185078A072286BE954A85A8
:1040740097D0FF1FE780E0F281BD83473700C1BFBF
:10408400970700209387878A984739C79C5FA9C7F9
:1040940005476313E504411122C4170400201304E7
:1040A400E483105006C60DC648509705002083D5FA
:1040B400A58889818297085097E0FF1FE780A0AE0A
:1040C4009707002023AC07829707002023AA0782C2
:1040D400B2402244410182808280011117070020EE
:1040E4001307C7844EC68329870022CC26CA4AC830
:1040F40006CE52C456C2AA842E843289638B092008
:104104001C5FBA8A99EB2945F2406244D244424981
:10411400B249224A924A056182805C5BEDD79307DB
:10412400F01F63EAA70E97F9FF1F9389297B83A7E2
:104134000902B1CB03A58A0083A749026395A706A8
:1041440089476393F408C147E31FF4FA17F5FF1F87
:104154000355857E9147130505FC3345F5029317F6
:10416400250003A509022286CA853E959307A0056A
:104174002301F50023109500110597D0FF1FE78058
:1041840040E2014551B79305E00417F5FF1F0355BD
:10419400A57A97E0FF1FE780209297F7FF1F23AFD0
:1041A400A77449F98DB783A74A0303A6090297F5B3
:1041B400FF1F83D565788981829783A78A0017F7C3
:1041C400FF1F232FF772ADBF8D47639EF400C147D5
:1041D400E31BF4F217F5FF1F03550576130545FDA0
:1041E4009377C5FFBDBF9147639AF400E31D94F034
:1041F40017F5FF1F035545742115DDB7930700100C
:10420400E393F4F0A147E3E087F017F5FF1F0355AC
:10421400A5724115F1B79D676379F506930705E02B
:104224001947B3C7E70217F7FF1F0357E77017FAD9
:10423400FF1F130AAA6AB387E702BE9983270A02FB
:10424400A1CF83274A026399370703250A029146BF
:104254001308A0059305F00F93D7260013972700A2
:104264002A9703462700631F06078358070003465F
:10427400370063959806B306D64063CF8604850756
:104284008A072286CA853E95CDBD21677917E36CDE
:10429400A7E6B307F54041BF9305E00417F5FF1FF8
:1042A4000355856997E0FF1FE780008197F7FF1F9B
:1042B40023A6A76459F581BD83A74A0303260A02EE
:1042C40097F5FF1F83D5456789814E85829797F7B8
:1042D400FF1F23A7376395BF2310B700931606016A
:1042E400C1829DBFB385860017F6FF1F0356C664BF
:1042F4009105130606FCE3F8C5E013063400719A31
:104304001106B2962301070123109700A301D700D9
:10431400BDB797F7FF1F9387675C9453BE89A9C203
:1043240003A5090291461308A0059305F00F93D73E
:104334002600139727002A970346270063180605CB
:10434400835807000346370063989800B306D640A5
:10435400E3D786F22310B70093160601C182C1BFCA
:104364008357C70017F5FF1F0345255D9305E00438
:104374003305F5024205418197D0FF1FE780C073E2
:1043840097F7FF1F23ACA75641FDB5BB17F6FF1FD8
:104394000356865A97F5FF1F83C5255AB385C50270
:1043A400338686001106E3E0C5D681BF01458280CD
:1043B400011106CE2EC6EF70207C01C9B245F24031
:1043C4000355250005616FB01012F240494505619F
:1043D4008280A38001882380018823A4018623A6E8
:1043E400018623A8018623AA018623A2018623A08D
:1043F400018697F7FF1F9387E75A93064038239166
:10440400D702F1761307400B938606B82391E70091
:104414002392D70211679D46130600059305000AEF
:104424001305007D2392E7002393D7024147854675
:10443400130810F82395E7002396E7002399E70073
:10444400239AE700239BE700239CE7002394E702D9
:10445400239007002393B7002394B7002397C70042
:104464002398C700239DA700239E0700239F0700CE
:10447400239007022395D702239607032397070265
:104484009308F007239807022392E7042393E70491
:10449400239FE7042390E7062391E7062392E70688
:1044A400239917031307C01C239AD702239BD7020F
:1044B400239C0702239D0702239E0702239F0702D2
:1044C400239007042391D704239407042395070416
:1044D4002396D7042397C7042398C7042399A704D2
:1044E400239A0704239B0704239C0704239DC704E2
:1044F400239EC7042393A706239407062395070640
:10450400239607062397B7062398B7062399070629
:10451400239AE7065147239DE7067D57239B070609
:10452400239C0706239ED706239F0706239007098B
:104534002391E7088280011126CAAA84214522CC4E
:1045440006CE2E8432C636C43AC2EFE08FF91DC9B6
:10455400A24612473246930700FD2300F50099470F
:10456400A30095002301F5002303D500A303E50070
:104574002312C500AA8522856244F240D244056113
:104584006FE01F85F2406244D2440561828023A417
:10459400A186828023A6A186828023A8A186828008
:1045A40023AAA1868280011122CC4AC806CE26CA3B
:1045B4002A890144B30489006368B400F240624468
:1045C400D2444249056182802EC6EFE07F9C931756
:1045D4000501C183A183B2452380F400930714002D
:1045E40093F7F70F850463F9B700CA97090423808A
:1045F400A7001374F40F7DBF3E847DBFC16717F518
:10460400FF1F03558538FD176304F502411117F6A2
:10461400FF1F0346E64C9385818706C6EF70C033BF
:10462400B240FD5717F7FF1F2311F736410182806F
:10463400828009C925151375F50F1335850E1345A9
:10464400150082800145828023900500C9C67971D6
:1046540022D426D24ECE52CC5AC806D64AD056CAF6
:104664005EC63684328AAE892A8B814463F344075A
:10467400B307940083C70700138914004209939A6F
:10468400070193DA0A011359090163840A04CA97DA
:104694006341FA04B307240183CB07005E85513FCD
:1046A4000DC99387FAFF2390F90063906B031305F8
:1046B40019002295B250225492540259F249624A86
:1046C400D24A424BB24B45618280D694C204C18027
:1046D40071BF0145C5B701458280411126C2AE8430
:1046E40022C497F7FF1F23A9C72A97F7FF1F23A305
:1046F400B72A97F7FF1F23ADA7282A8441469305BD
:10470400F00F26854AC006C6054997D0FF1FE780EB
:1047140040A26310250597F7FF1F9387A726884BB0
:10472400C145513541469305F00F228597D0FF1FAF
:10473400E78020A0854463189502224497F7FF1F61
:1047440093874724B24092440249C847C145410176
:1047540099BD41468145268597D0FF1FE780609D1E
:10476400E31225FD4DBF41468145228597D0FF1FA9
:10477400E780209CE30395FCB24022449244024922
:1047840041018280411122C426C22E84AA841306C8
:104794000002814517F5FF1F1305C51E06C697D0F5
:1047A400FF1FE780A08697F7FF1FA38E971C97F73C
:1047B400FF1F23898732EFB00055854719C1814710
:1047C4004945B240224417F7FF1F230DF71A9244BC
:1047D40041018280814781CD19C98547631BF5005A
:1047E40083C7550093E707FCA382F50085473E8500
:1047F400828089476317F50083C7550093F7F70351
:10480400E5B70D478547E314E5FE03C75500137765
:10481400F70313670704A382E500D1BF81478DC165
:1048240005C103C755009306000C85471377070C91
:104834006308D700930600048D476303D7008947B4
:104844003E858280411122C4005D06C626C21DC871
:10485400AA84085009C597D0FF1FE780C034485088
:1048640009C597D0FF1FE7800034085409C597D0C5
:10487400FF1FE7804033228597D0FF1FE780A032D7
:1048840023AC0402B240224492444101828009EDE7
:1048940097F7FF1F83C7270F17F5FF1F1305051091
:1048A40081CB13858185828017F5FF1F1305050FC2
:1048B400828017F5FF1F0345050D828097F7FF1FC0
:1048C4009387470CC847828097F7FF1F9387870B0E
:1048D400884B828097F7FF1F9387C70ADC4B884376
:1048E400828097F7FF1F9387E709D84B1C438507FE
:1048F4001CC317F5FF1F034515099307F00F630544
:10490400F50091656FE07F818280011122CC06CE93
:104914002E8432C6EF7000379147B245631FF5000D
:10492400938741879C438DC303A30700630E030051
:1049340022856244F240056102839387C1869C43C9
:1049440081C703A34700DDB7F24062440545056112
:104954008280011122CC2A840355450006CE26CA42
:104964004AC84EC6EF70201035C52A898344050015
:104974008349C500C13D4A85EF70E06B035544008F
:10498400EF70802B83C70188B1CB6399970483C5EB
:1049940011882685EFF0DFA119E1238001880355F2
:1049A4004400EF70202E9147631FF5000357440025
:1049B40097F7FF1F83D767FD6317F700FD5717F7B6
:1049C400FF1F2314F7FCF2406244D2444249B24927
:1049D4000561828081499304F00F6DB79307F00F4E
:1049E400E38FF4FA8346640003564400034524002D
:1049F4004E87A685893665B779715EC6AA8B2E85E2
:104A040052CC56CA5AC806D622D426D24AD04ECE42
:104A1400AE8A328B368AEF7000057DC1045D2A8927
:104A2400E5C09C50614599C3130540039C5481C75C
:104A340051054205418163050A0071054205418122
:104A4400DC5081C75D0542054181EFE08FA92A84CE
:104A540045C96146814597C0FF1FE780205B97F9F0
:104A6400FF1F83C929F76394090083490900930749
:104A740000FD2300F400A947A30074012301F400FE
:104A8400230364018C50231254011305840191C93A
:104A940008C47146930A440397C0FF1FE78060501F
:104AA40056858C5491C948C45146930A450197C010
:104AB400FF1FE780004F5685630C0A0008C8714643
:104AC400D285930AC50197C0FF1FE780804D5685A4
:104AD400CC5099C548C85D4697C0FF1FE780604C1D
:104AE400A2854E85EFE0CFAE2254B2509254F249E3
:104AF400624AD24A424BB24B4A850259456199B344
:104B0400B250225492540259F249624AD24A424B58
:104B1400B24B4561828001114EC6AA892E854AC8CE
:104B240006CE22CC26CA2E89EF60F07321C997F4F1
:104B3400FF1F83C424EA99E0834405001945EFE08C
:104B44004F9A2A8405CD8145194697C0FF1FE780F7
:104B5400E04B930700FD2300F400B947A3003401A0
:104B64002301F40023122401A2856244F240424945
:104B7400B2492685D24405616FE08FA5F2406244B4
:104B8400D2444249B2490561828039715ECEAA8B12
:104B94002E8526DA4ED652D456D25AD006DE22DCE0
:104BA4004AD8AE84328BB68A3A8ABE8942C6EF604E
:104BB400906B21CD2A894145EFE0AF922A8431C51B
:104BC4004146814597C0FF1FE780404417F5FF1F0A
:104BD400034545E019E103450900930700FD23005F
:104BE400F400BD472301F400B247A300740123126B
:104BF400940023046401A304540123054401A30580
:104C040034015CC4A285EFE0AF9CF2506254D254EC
:104C14004259B259225A925A025BF24B2161828064
:104C2400797126D2AA8439454AD04ECE06D622D4EA
:104C34002EC6B2893689EFE0CF8A21C1B2459307E7
:104C4400000D2310F500B1472A842312B500230177
:104C5400F500CE851905194697C0FF1FE78060341B
:104C640023062401A2852254B2500259F24913F5B5
:104C7400F40F925445616FE0AF95B25022549254B0
:104C84000259F2494561828017F7FF1F0347B7CFE6
:104C94009307F00F630DF706411126C2AA84394524
:104CA40022C406C64AC0EFE0CF832A8439C99307D9
:104CB40000FD2300F500A30095002301050097F5EE
:104CC400FF1F9385A5CD0D05194697C0FF1FE780EB
:104CD400402D17F9FF1F1309E9CA83578900A285DC
:104CE40017F5FF1F034535CA2315F4008347190040
:104CF4002306F4002244B2409244024941016FE089
:104D04002F8DB24022449244024941018280828024
:104D140001115AC02A8B314526CA4EC652C456C206
:104D240006CE22CC4AC8AE84B28A368ABA89EFD07B
:104D34005FFB35CD2A842685EF60F05211C5034709
:104D4400C500A1476314F70417F9FF1F0349B9C34A
:104D5400930700FD2300F4009D47A3006401230191
:104D6400F400231294002313540123144401231543
:104D74003401A2856244F240D244B249224A924AA2
:104D8400024B4A85424905616FE08F8417F9FF1F82
:104D9400034959D5E31E0BFA9387C1909C439C4762
:104DA400C5DBCE865286D6852685829755B7F240D6
:104DB4006244D2444249B249224A924A024B0561B2
:104DC4008280011122CC2A84214506CE2EC6EFD042
:104DD4005FF121C1B245930700FD2300F500C547EB
:104DE4002301F50083C73500A301F50083D74500EF
:104DF4002312F50083C765002303F50083C77500FC
:104E0400AA85A303F50022856244F24005616FD0B0
:104E14003FFCF240624405618280397162CC2A8C85
:104E2400594526DA4AD84ED652D456D25AD05ECEF6
:104E340006DE22DCAE8432C636C4BA8B3E8BC28A0E
:104E4400468A8359010403494104EFD09FE925C9E7
:104E54003246930700FDA2462300F5009547A301BF
:104E6400C500A30085012301F5002A841946110514
:104E7400A9C2B68597C0FF1FE780A012230664016C
:104E8400230A240123157401231754012318440110
:104E940023193401A2856254F2504259B259225A5C
:104EA400925A025BF24B624C2685D25421616FD038
:104EB4003FF2814597C0FF1FE7804015C1B7F2500C
:104EC4006254D2544259B259225A925A025BF24B5A
:104ED400624C2161828097F7FF1F83C7C7AA8DCBDD
:104EE4004111AA8519461385818506C697C0FF1FFF
:104EF400E780200B9385818517F5FF1F0345A5A83F
:104F0400EFF05F8DB2401385818541016FA0306061
:104F14000145828017F7FF1F0347F7A69307F00F99
:104F24006305F708411126C2AA84294522C406C68E
:104F3400EFD03FDB2A8429C1930700FD2300F5004D
:104F4400A1472301F500A300950097F7FF1F93875E
:104F540067A383C72700938581851105A30FF5FEF9
:104F6400194697C0FF1FE780C003A28517F5FF1FEE
:104F7400034575A1EFD0DFE517F7FF1F0347A7A08F
:104F84008D47631FF700938701879C4391CB03A34D
:104F94008700630703002244B24092444101028324
:104FA400B240224492444101828017F7FF1F034715
:104FB400879D8D47631AF700938701879C4389C7B0
:104FC40003A38700E31D03FC8280797122D406D6F3
:104FD40026D24AD04ECE52CC094455CD2A89035507
:104FE40005002E8A5144EF601028AA844DC597F716
:104FF400FF1F83C727AFFD1793F7F70F05474944F2
:10500400637BF7080347C500A1476314F7006314E3
:105014000A089C5C4544C1E3916593854571130579
:10502400C00297D0FF1FE78020A988DCAA894D44DD
:105034003DC11306C002814597C0FF1FE78000FDF4
:10504400835709009386490036852391F9007146F8
:105054009305490036C697C0FF1FE78080F489474F
:105064002380F90003C5C400B24603560900611544
:1050740097F5FF1F83C5C5A613351500EF70F041E2
:105084002A8463060A00D2852685EF70A02A01C40B
:105094002685EFF02FFB2285B250225492540259F8
:1050A400F249624A4561828097F7FF1F83C787A34D
:1050B400FD1793F7F70F0547637AF708894741CA45
:1050C400011122CC26CA4AC84EC652C406CEAA89A9
:1050D400368AB2842E89EF6010192A84D14739C9DF
:1050E400485509C597D0FF1FE780E0ABF1452685F9
:1050F40097C0FF1FE78020F748D4CD4705CD8346EE
:10510400C40021478147639FE600630D0A000347FB
:10511400A5010356050193062501AA854E85EF7066
:105124002029AA8703474400630F09001367670017
:105134002302E400F2406244D2444249B249224A82
:105144003E850561828013674700DDB7C9473E8508
:1051540082809307000463EBA70097F7FF1F9387F0
:10516400678406053E9503550500828041657D15DB
:105174008280011122CC2A842E8526CA06CEAE84D2
:10518400EF60700E1DCDB7470F009387F7230945D5
:1051940063E4870281450A85414697C0FF1FE78083
:1051A400E0E6A685231081000A8541802301810061
:1051B400A3010100EF70301AF2406244D244056149
:1051C40082804945D5BF97F7FF1F238CA790828023
:1051D4006F70D026797152CC2A8A328522D426D295
:1051E4004AD04ECE56CA5AC85EC606D662C4AE8BE4
:1051F400B28A368BBA843E89C2894684EF60B0068F
:1052040015C92A8C63140A0213774B00834745009F
:1052140015CF93E727012302FC008DEC631C0902E0
:10522400639A090205E8ED9B2302FC00832B8C039F
:1052340063910B08B250225492540259F249624AC3
:10524400D24A424BB24B224C45618280F59B93E794
:105254000701D1B793E747002302FC0001CC1C48A7
:105264004146A2852324FC0213058C0197C0FF1F2D
:10527400E78020D363930B02D5D80325CC0209C55C
:1052840097D0FF1FE7802092F145268597C0FF1F26
:10529400E78060DD2326AC0251BFE30909F803254A
:1052A400CC0209C597D0FF1FE780E08FF1454A85FE
:1052B400F1BF9DC483A70B0299EB9165938535716A
:1052C400714597C0FF1FE780207F23A0AB0203A591
:1052D4000B0219C57146A68597C0FF1FE78060CCF5
:1052E4006388090283A74B0299EB91659385257125
:1052F4005D4597C0FF1FE780207C23A2AB0203A576
:105304004B0219C55D46CE8597C0FF1FE78060C973
:105314001DC483A78B0299EB916593851571514543
:1053240097C0FF1FE780407923A4AB0203A58B023B
:1053340019C55146A28597C0FF1FE78080C6225435
:10534400B2509254F249B24B224CCA865A86025940
:10535400424BD6855285D24A624A45616FF0CFE905
:10536400011126CA52C406CE22CC4AC84EC62A8A85
:10537400AE84EF60406F25C5AA893945EFD07F968A
:105384002A8431CD17E9FF1F0349C9646314090056
:1053940003C909009307000D2310F400AD4723014E
:1053A400F4009385690013053400194697C0FF1F64
:1053B400E78020BF93F71400858085882306F400D6
:1053C400A306940023154401A2856244F240D2440A
:1053D400B249224A4A85424905616FD07F9FF24013
:1053E4006244D2444249B249224A05618280011191
:1053F4004EC652C456C206CE22CC26CA4AC8AA8A6F
:105404002E8AB289EF6020662DCD2A891305C00249
:10541400EFD03F8D2A8435C597E4FF1F83C4845B96
:1054240099E0834409009307000D2310F400E94731
:105434002301F4009305690013053400194697C04D
:10544400FF1FE78000B6D285231554011305C4005D
:10545400414697C0FF1FE780C0B4CE851305C40141
:10546400414697C0FF1FE780C0B3A2856244F24063
:105474004249B249224A924A2685D24405616FD0F4
:105484003F95F2406244D2444249B249224A924A88
:105494000561828093870186884301CD411106C648
:1054A40097C0FF1FE7802070B24023A0018641010E
:1054B40082808280011106CE22CC26CA4AC82EC61A
:1054C400EF60605A39CDB24517E9FF1F034989508F
:1054D400AA840CD563140900034905004145EFD0A3
:1054E4005F802A841DCD9307000D2310F500A54786
:1054F4002301F50083C75400938564001105A30FAD
:10550400F5FE194697C0FF1FE780A0A99C54A28509
:10551400F2405CC46244D2444A85424905616FD07A
:105524003F8BF2406244D2444249056182807971E2
:1055340022D406D62A842EC6EF60E05201CDB245AD
:105544002285230EB1006C08EF60505BB2502254E8
:10555400456182805145DDBF6F608067C1671387F5
:10556400E7FF6394E5029387C1869C4391EB494529
:1055740082804945B24022449244024941018280DA
:1055840003A30700E30503FE0283411122C426C2DC
:105594004AC006C6FD172A892E84B2846395F50293
:1055A4009387C1869C4391CB9C4381CB829711E521
:1055B40023802189A380918875BFA6854A85EFE061
:1055C4003FDF4DF9F5B72E85EF60E0495DD18347A4
:1055D40005000D45E39027FB22852244B240024991
:1055E400A685924441016FA000709307000463E212
:1055F400A7064111C16722C406C626C2FD172A8424
:1056040009456382F502C547AE846313F4022E850F
:10561400EFA0607417E5FF1F1305C53806042A942C
:10562400231094000145B2402244924441018280F7
:105634009307A0036316F4002E85EFA0406BD9BF37
:105644009307B003E318F4FC13F5F50FEFA0606AB9
:10565400D1B709458280011106CE2AC6EFE07FD773
:10566400EF204021EF108060EF20C10C324597E716
:10567400FF1F93872731130700F02391E70023824C
:1056840007007D5797E7FF1F938787452381E7002E
:105694002380A700F240954505616F40B04F5971D2
:1056A40093970501CAD086D6A2D4A6D2CECED2CCA8
:1056B400D6CADAC8DEC6E2C4E6C2EAC06EDEC18774
:1056C4002E8963D1075A17E5FF1F03456541EFD0C3
:1056D400CFE78964416A856A797B2A84938BD400F5
:1056E4007D1AA50A130CABFF1DE021653345A90003
:1056F400B650265496540659F649664AD64A464B3D
:10570400B64B264C964C064DF25D6561828083470C
:1057140004001307200A639DE7000355240097E95A
:10572400FF1F83C959262286D285EFF00F9E59A206
:105734001307100997E9FF1F83C9A93A6398E7186B
:105744008347140015476390E7022285EFF06FA0AA
:105754002285EFD02FD417E5FF1F03456538EFD01E
:10576400CFDE2A8451B73947639BE71803554400B9
:10577400631B55050C4483CC0500639D0C00850513
:1057840091C9194617E5FF1F1305452197C0FF1F4F
:10579400E780208117E7FF1F0347C71E854763176C
:1057A400F712638A0C0097E7FF1F238D071C668599
:1057B400EFF08FCD71BF894717E7FF1F2304F71C54
:1057C400EFA0A05471B793872400631AF506832CC5
:1057D4008400638D0C0E83C70C008DE383C72C00FB
:1057E40003C71C00A207D98F17E7FF1F2310F71A5E
:1057F40083C73C0017E7FF1FA306F71817E7FF1F2F
:105804000347471889476313F70C83C70C0081CB00
:1058140097E7FF1F2388071603C50C0051BF8D4768
:1058240097E5FF1F83C5151617E5FF1F03550516DA
:1058340017E7FF1F2308F714EF40D038F1BF938711
:1058440054006318F5001C4403C50700EFF08FEC07
:1058540001B7B3078501C207C18311476372F70417
:105864009307ABFCAA97139707014183F14763F1B0
:10587400E7029387B4006312F504938781869C43FF
:10588400E38807EC9C43A285E38407EC82971DA080
:10589400B70700189387F770B3D7E700858BB9CBA8
:1058A400938701879C43E38507EA9C43E38207EAE5
:1058B40022858297E31E05E811A89387C40063102C
:1058C400F5021C4483C70700E38407E89307F00F3D
:1058D400E380F9E8A2854E85EFD08FCFADBD9387E5
:1058E400E4006319F5009387C1869C43E38207E6CD
:1058F400DC4351BF93871404E301F5F8C1BF3D476E
:105904006397E70403554400E30F75FD93879401FF
:10591400E30BF5FC93873401E31AF5FA97E7FF1FCD
:1059240083D7A706639E47019387C1869C43E3817F
:1059340007E2DC43E38E07E0A28513853401B9B79F
:10594400938741879C43E38507E09C43E5B71307AE
:10595400E003E39DE7F68347240005476397E70EDA
:1059640083476400938D0186F1E383A70D00D5CBB3
:1059740083CC0700A14903457400130D8400EA8514
:10598400EFE0DFE983474401A303A4008358040143
:105994000358E400035744002A86034534003EC2FA
:1059A40083572401EA86E6853EC0CE87EFF0EFC632
:1059B4008347340095E7DD47835804010358E40026
:1059C40083467400835544003EC2835724016A878A
:1059D40005463EC06685CE87EF60603DA301A40006
:1059E40083A70D0081C71145EFF0DFAA03C5018825
:1059F400E30005D683C51188EFE09F9BE30A05D435
:105A04008346340093071003638AF6000356440068
:105A14004E8783C501883685EFE0FFB12380018876
:105A240005BB97ECFF1F83CC1CF6A9B793870187AE
:105A34009C4397ECFF1F83CC1CF591498DDFDC431D
:105A44009DDB8145014582973DB729476391E70C6A
:105A540083476400138D0186C1E783270D00A5CF1A
:105A640083CC0700A149034574009306840093770F
:105A74002500D1C713761500930D44018347040212
:105A84008358C4010358A401035744000345340058
:105A94003EC28357E401E6853EC0CE87EFF0EFB700
:105AA4008347340095E7DD478358C4010358A401B4
:105AB40083467400835544003EC28357E4016E87D5
:105AC40005463EC06685CE87EF60602EA301A40024
:105AD40083270D0001BF97ECFF1F83CCDCEA59B785
